:020000022000DC
:106000000000012079630200616302006363020003
:10601000656302006763020069630200000000001C
:106020000000000000000000000000006B630200A0
:106030006D630200000000006F63020071630200E4
:106040006D9D020073630200A9A102007363020048
:1060500073630200736302002DA0020073630200E9
:1060600073630200736302007363020073630200D0
:1060700073630200736302007363020073630200C0
:1060800073630200C572020073630200736302004F
:106090008173020073630200211E03007363020018
:1060A0007363020073630200736302007363020090
:1060B0007363020073630200000000000000000030
:1060C0007363020073630200736302007363020070
:1060D0007363020073630200736302000000000038
:1060E00000000000000000000000000000000000B0
:1060F00000000000000000000000000000000000A0
:10610000000000000000000000000000000000008F
:10611000000000000000000000000000000000007F
:10612000000000000000000000000000000000006F
:10613000000000000000000000000000000000005F
:10614000000000000000000000000000000000004F
:10615000000000000000000000000000000000003F
:10616000000000000000000000000000000000002F
:10617000000000000000000000000000000000001F
:10618000000000000000000000000000000000000F
:1061900000000000000000000000000000000000FF
:1061A00000000000000000000000000000000000EF
:1061B00000000000000000000000000000000000DF
:1061C00000000000000000000000000000000000CF
:1061D00000000000000000000000000000000000BF
:1061E00000000000000000000000000000000000AF
:1061F000000000000000000000000000000000009F
:10620000364937480A1A02D0072291438D4635494C
:1062100035480A1A06D00722914381F309880222E1
:1062200082F3148831483249324A00F045F8324846
:106230003249334A00F040F832483349334A00F0DB
:106240003BF833483349344A00F036F83348344990
:10625000344A00F031F834483449354A00F02CF81B
:1062600034483549354A00F027F835483549002289
:1062700000F02DF834483549002200F028F8344861
:106280003449091A082903DB002202600430016046
:10629000314A90471F482049884205D0026804309F
:1062A00003B4904703BCF7E700208646EC46002085
:1062B00000212A4A9047FEE7884207D0521A05D0AB
:1062C000037801300B700131013AF9D170478842EF
:1062D00002D002700130FAE7704700000000012090
:1062E00000E000200000012000000120B84F030062
:1062F000AC2A0020282E0020D8630200D8630200B8
:1063000092260300B84F0300AC2A0020AC2A0020DC
:106310002428030024280300242803002428030041
:106320002428030024280300242803002428030031
:10633000B84F030034530300282E0020282E0020DD
:10634000282E0020667400206874002068740020E5
:106350006874002068940020A1630200A5BA0200BE
:10636000FEE7FEE7FEE7FEE7FEE7FEE7FEE7FEE705
:10637000FEE7FEE7704700BF1048804710484FF027
:106380000701884385460F4880470F48016841F45C
:1063900070010160BFF34F8FBFF36F8FFFF730BF06
:1063A0000A480B490B4A884207D0521A05D0037895
:1063B00001300B700131013AF9D170477563020069
:1063C000000001209D97020088ED00E010280300E6
:0863D000982A0020AC2A0020ED
:1063D8007047000007B5044B0093044A402300F0BF
:1063E80032F803B05DF804FBF9630200292E00209F
:1063F8002DE9F84389461446B2B10F4B0F4E0325D9
:10640800002743F00108224609EB0701002006F0A7
:106418001FF80744241A48B933782BB14FF47A404F
:10642800C047013D02D13570BDE8F88301233370C0
:10643800002CE8D1F8E700BF30280300282E002000
:10644800704706F039B8F0B595B01C4616460846B0
:106458000D4602F043FF1A9B0D93CDE90864002412
:106468002346082205A928460A948DF82C400C9446
:1064780002F052FF079B0293BDF81830ADF80C30BC
:10648800BDF81A30ADF80E309DF814308DF8114073
:1064980003F00302012A1DD1BDF81440059EC3F381
:1064A800C203C4F383148DF81030A20008230EA988
:1064B800284602F031FFC6F3952608AB0093224622
:1064C80002AB0EA9304600F089FB284602F00AFF0D
:1064D80015B0F0BD022AF8D1BDF81640C3F3C203C7
:1064E800A4098DF810300827082C264628BF08264E
:1064F8003B4632460EA9284602F00EFFA41B08AB05
:1065080002AA31460EA8374400F0CCFB002CEBD190
:10651800DBE7000008B5FFF794FF0421034800F00B
:10652800CBFA034B01225A7108BD00BF00280300B3
:10653800AC2A0020037813F0040216D003F00303FA
:10654800012B03D0022B09D0012070470A6800886C
:106558000232C0F3831002440A60F5E70B684288F0
:10656800023303EB92130B60EEE71046704700000E
:106578002DE9F04F89B00546861C08A8484C0192C1
:1065880000230F4600F8113D01F0E2F823683B6054
:10659800D4E901231344226801339B1A04F21C47EF
:1065A80004F5836A04F21448B3421AD3019A00230B
:1065B800002A6DD0012262F3010343F0040365F35E
:1065C80089132168A2689DF80F000A4003320E441F
:1065D80044F82230266001F0DFF8012009B0BDE858
:1065E800F08F0121384602F0FBF8504602F011F90D
:1065F800404602F00EF90DF120096068D4F808B0A1
:1066080049F8100D00EA0B00033004EB80004946FE
:10661800FFF790FF049BB0B90BEA030204EB820278
:10662800D16805919A1C013303EA0B0B04EB8B0C20
:1066380001F00303012B0492DCF80CB020D0022BEC
:1066480004D083460BE00BEA0300DDE7BDF8163003
:106658009B0903334FEA1B4B02EB93030493404619
:1066680002F0DAF808B1049B63605946384602F034
:10667800B7F8D4E901231344226801339B1A93E73E
:10668800BDF81430C3F383134FEA1B4B1344E5E7FB
:10669800022262F3010343F0040365F39F5390E77A
:1066A8003C2F00200B4B0C48FF2210B59A600022AB
:1066B800C3F81824C3E90022C3F8142483F820245B
:1066C80002F0C5FD044610B9044802F06FFE2046EA
:1066D80010BD00BF3C2F00202C27030054280300C6
:1066E80030B50A4C71B10A4A0A49121BD208002374
:1066F8009A4201D1002030BD31F82350854202D0A2
:106708000133F5E7034654F83300F4E74027030064
:1067180000280300AC2A0020094B013903EBC00014
:10672800032909D8DFE801F00A02040604207047AB
:106738000079704740797047002070470220704701
:1067480040270300034BD3E90030C31A584258418D
:10675800704700BF3C2F00202DE9F04387B0FFF7BA
:10676800F1FF0646002840F0FC807F4DC5F818046C
:10677800BFF34F8F6868AC6806AF47F8100D20402C
:10678800033005EB80003946FFF7D4FE029B18B1B1
:10679800D5F81824002A5FD004EA0302991C0133B3
:1067A80005EB8202234005EB8303D268DB68049380
:1067B80002F00303022B0392029162D1BDF80E305E
:1067C8006A484FEA9318B8F1500FC14628BF4FF0F6
:1067D800500969F38F1309F10801ADF80E3002F082
:1067E8004EFD0746002800F0A78002F077FD03A9B8
:1067F80000230822384602F084FD029924EA0106A3
:106808000136B600B14535D95FFA89F97EB3F6B2DB
:10681800A9EB0609214003315FFA89F4B146544EC9
:1068280005EB810108234A46384602F06AFD36B175
:1068380009F1080322463146384602F062FD029B00
:1068480008F1030803EB98030293D5F81834002BDA
:106858004BD1D5F810445BE02A689A4204D86A60A4
:10686800304607B0BDE8F08304EA030088E74049F2
:106878003446D7E72140033108234A4605EB810116
:10688800DAE7012B58D1BDF80C303848C3F383112F
:10689800062928BF062161F3891302318900ADF862
:1068A8000C3002F0ECFC0746002845D002F016FD3B
:1068B8000023082203A9384602F023FD0026BDF86C
:1068C8000C20C2F38312B31C96424FEA8303BCD256
:1068D80002994A1C21400331029205EB81010422EE
:1068E800384602F00EFD0136E9E7384602F0FAFCB8
:1068F800FFF728FF80F00100C6B2B1E7E3685B79D3
:1069080023B1236839461B6820469847E3681C680A
:10691800002CF3D1384602F0E5FC06A800F8114D2A
:1069280000F016FFD5F818340BB9029B6B609DF880
:10693800070000F031FFDBE7D5F8104454B90D4BE0
:106948000D480E49C01AC008000440F0020000F0CB
:106958006FF8CDE7236820469B689847E3681C6872
:10696800ECE700267CE700BF3C2F00202C27030023
:10697800482F0020402703006827030060280300F1
:106988002DE9F74F284C80460F46924601A901226F
:1069980018469B46D4F80890FFF7EAFD88B3019D96
:1069A8000026A91C5E4506EB010234D100211F48D0
:1069B80001F0D5FE80F310006A1C02EA090204EB1C
:1069C8008202000405EA0903033340EA1840D06054
:1069D80014F8232068F3C50204F8232034F8232090
:1069E80066F3891224F8232054F82320012167F341
:1069F8009F2244F8232061F301026FF3820204F816
:106A0800232094F820341BB1FFF7A6FE0028FBD101
:106A180003B0BDE8F08F09EA020204EB82025AF8DB
:106A28002630D3600136BDE73C2F002058330020C4
:106A380000231A46FFF7A4BF13B502AC012344F89C
:106A4800042D2246FFF79CFF02B010BD07B5CDE923
:106A5800002302236A46FFF793FF03B05DF804FBA7
:106A68001FB5CDE90123069B039301AA0323FFF772
:106A780087FF05B05DF804FB1FB5CDE90023069B31
:106A88000293079B03936A460423FFF779FF05B037
:106A98005DF804FB7FB5CDE90023089B0293099BB1
:106AA80003930A9B04930B9B05936A460623FFF7FF
:106AB80067FF07B05DF804FB30B50F49D1F8102423
:106AC800002314463CB9C468237152B9C1F81004B4
:106AD8002260184630BDE46825799D4206D02468B6
:106AE800F0E7D268116821601060F2E701330A2BE1
:106AF800E7D14FF0FF33ECE73C2F0020094A38B5C7
:106B08000123D2F8104482F820341D4604B938BD58
:106B1800E3685D71236820465B689847E3681C68F2
:106B2800F4E700BF3C2F0020037A052B10B50C4674
:106B38000FD0437A23B1084A0849204601F0CDFE18
:106B48000749204601F0C9FE2046BDE8104001F083
:106B5800B9BE002AF8D0F3E7AB2803008B43030043
:106B6800CD280300C38873B504460D4633B1144AD3
:106B780000921449144A284601F0AFFE217A0529EB
:106B88001CD0637A4BB1A088FFF7C6FD0F4B1049A4
:106B980053F82020284601F0A0FE227A0D4BA08849
:106BA80053F822600021FFF79BFD0B49034632464C
:106BB800284602B0BDE8704001F08FBE02B070BD3B
:106BC800AB280300B8280300B02803007828030086
:106BD8008B430300DC280300D02803002DE9F04391
:106BE80085B01F460C9D002306460C46904695F836
:106BF8000C902B7329463846FFF7B4FFB8F1060FFF
:106C080009D8DFE808F00412181F2833400031467D
:106C1800284601F062FE002229463846FFF784FF25
:106C280085F80C9005B0BDE8F08322683146284607
:106C380001F053FEEFE7D4E900233146284601F07E
:106C48004CFEE8E7A36800933146D4E900232846C0
:106C580001F043FEDFE7E3680193A3680093314640
:106C6800D4E90023284601F038FED4E723690293CB
:106C7800E3680193A36800933146D4E900232846CA
:106C880001F02BFEC7E76369039323690293E36866
:106C98000193A36800933146D4E90023284601F004
:106CA8001CFEB8E708292DE9F84F80460E4617461E
:106CB8001C4636D8002593F80C901D7319461046CB
:106CC800FFF750FFDFF87CA0DFF87CB0AE422AD98E
:106CD80018F805205946204601F0FFFD0135082D1A
:106CE800F4D11649DFF864B0204601F0F6FD00251E
:106CF800AE421DD918F805A050460BF0DDFB002860
:106D080014BF52462E225946204601F0E6FD0135B1
:106D1800082DEDD1012221463846FFF705FF84F8FA
:106D28000C90BDE8F88F5146204601F0D6FDD5E716
:106D38000349204601F0D1FDE9E700BFA62803007A
:106D4800A4280300A22803009C280300A828030005
:106D58002DE9F04F3B4F89B000263B4B1B78F5B22D
:106D6800AB4202D809B0BDE8F08F384B196811F86A
:106D780035000124A0F12002C0F1200304FA02F931
:106D880024FA03F349EA0309D7E9002304FA00F8CF
:106D9800CDE9042302EA080203EA0903134301EBDD
:106DA800C50B4CD0DDE9042322EA080223EA0903D3
:106DB800C7E90023079103F02BF90799844611F8D6
:106DC8003500A0F12002C0F1200324FA03F304FAED
:106DD80002F21A4304FA00F300931D4B0192DDE915
:106DE8000045D3E9002314401D4022462B465FFA94
:106DF8008CF40025CDE90445049CA0F12005AC40A5
:106E08000394049CC0F1200124FA01F1039C0C4373
:106E18000499039481400291DDE90245AB4208BF21
:106E2800A2420CD19BF801104B1E59425941A1EBCB
:106E38000C02DBF804305142514103B19847013646
:106E48008BE700BF28340020F833002030340020BE
:106E5800203400202DE9F84F0646244800F068FC4D
:106E6800002841D10123A6F12001C6F1200203FA2E
:106E780001FB23FA02F203FA06FA1D4BD3E90001DB
:106E88004BEA020B00EA0A0801EA0B0958EA090270
:106E98001F4623D1304603F0BBF8164BB8B1D3E9EF
:106EA800000140EA0A0441EA0B05C3E90045D7E9B5
:106EB80000234BEA0305104B0C4819684AEA020400
:106EC800C7E900450022BDE8F84F00F0EDBBD3E963
:106ED800000120EA0A0421EA0B05E6E720EA0A0491
:106EE80021EA0B05C3E90045BDE8F88F003400200E
:106EF8002834002020340020FC330020042A2DE907
:106F0800F34105460C4616463AD902F0B9FFD8B106
:106F18001C4B1D491D601D4BDFF884801C701C4BE9
:106F280000221E600023C1E900231A49C1E9002399
:106F3800013CE4B200260327FF2C0CD1164A17485F
:106F4800002100F09FFB03E002F062FF0028DFD081
:106F580002B0BDE8F08123B205EBC30201A9927823
:106F68008DF8052015F833008DF8066042468DF837
:106F7800047002F08FFF013CE4B20028DCD0E7E7A0
:106F88000720E5E73034002020340020F8330020C3
:106F9800FC33002028340020596D02003C290300EE
:106FA8005D6E020070B5084D084E00242B789C4297
:106FB80001D3002070BD3368012113F8340002F0BA
:106FC800E1FF0134F2E700BFF8330020303400203D
:106FD8001FB50021039001AA44F20100CDE9011177
:106FE80000F004F805B05DF804FB000010B572B6B7
:106FF800FFF784FDFFF7B0FB0028FBD1104B114CC5
:107008001149E41AE408240444F00100FFF710FDD4
:107018000E4B1B68DB0700D500BE0D4944F002008B
:10702800FFF706FDBFF34F8F0A490B4BCA6802F4FE
:10703800E0621343CB60BFF34F8F00BFFDE700BF93
:10704800402703006827030040290300F0ED00E013
:107058004C29030000ED00E00400FA0512F00303D8
:1070680010B511D1094C22604C1CE400A4B2224492
:10707800074C2260074A1370074A1370074A1080AA
:10708800074A1846118010BD0720FCE73C34002051
:1070980038340020343400204434002040340020A8
:1070A800423400202DE9F3472B4D2B888B420646AE
:1070B8000C4617464BD302A84FF0000800F8018D84
:1070C80000F046FB254B264A18781178CBB22549A3
:1070D80009888B4238BF0133C0B238BF5FFA83F8E2
:1070E80040452ED092F800801378DBB2994286BFD3
:1070F8000133DBB2002313709DF8070000F04CFB4E
:107108004FF6FF73984524D0DFF860A0DAF8003016
:107118004FEAC80903EB090243F83870A6B19CB1DD
:10712800114B28881B68224608FB003031460BF0BB
:10713800FEF9DAF800304B4400209C8002B0BDE82C
:10714800F0874FF6FF78D7E700209080F6E7092010
:10715800F4E70420F2E700BF403400204434002064
:107168003434002042340020383400203C340020DD
:10717800F8B5124C124D264622782B789A4200D147
:10718800F8BD23780F48104A078812680F48DBB209
:1071980019B202EBC10C006852F83120BCF8041097
:1071A80003FB070090470A4A23781288DBB29A4209
:1071B80086BF0133DBB200233370DDE7443400209F
:1071C80034340020403400203C340020383400207F
:1071D80042340020094A537891780133DBB299424E
:1071E80008BF0023117899421FBF037050781823F5
:1071F80003FB002014BF04300020704748340020EF
:10720800082910B5044602D00020FFF7E1FED4E9B2
:107218000030BDE81040184773B5054602A80024A1
:1072280000F8014D0E4600F093FA0DF10600FFF745
:10723800D1FF90B106700A4B9DF8062045605A7040
:107248009DF8070000F0A8FA24B9064B4FF4801205
:10725800C3F80021204602B070BD0424F0E700BF47
:107268004834002000E100E0024B4FF43C6043F05A
:10727800010318476029030038B50C4B0C4C4FF438
:107288000032C3F8802001254FF48033C4F8483316
:10729800C4F808336560FFF7E7FF064BA5600024D4
:1072A8001C60FFF7E1FF044B1C7038BD00E100E0F3
:1072B800001001406435002055350020264B2DE98B
:1072C800F3411B6825490025C1F84051C1F84451D4
:1072D800C1F84851C1F84C51C1F80051C1F80451E6
:1072E800002B34D0D1F804451D49DFF8888009689F
:1072F800641A24F07F442F461A68A24212D8A41AAE
:1073080015441A7CDE6962B15A691F7400929B6940
:107318000193424608216846FFF7C4FE08B1FFF70B
:1073280057FEBEB90F4B104A197813788B4205D116
:107338000133DBB2022B08BF0023137012780B4B0A
:1073480043F822500A4B4FF48012C3F8002102B0D0
:10735800BDE8F0813346CFE76835002000100140D2
:107368006435002060350020613500205835002044
:1073780000E100E0097202002DE9F74F9E4A9F499B
:10738800137809789E4D99423CD00133DBB2022B29
:1073980008BF002313709B4912789B4B0F6853F862
:1073A80022003B1823F07F4300220B602B6816460F
:1073B8001446944613B942B12B6006E0196881421D
:1073C8000ED902B12B60091A19604FF001082B6819
:1073D800DFF83CA200930027BEB9DFF83CB260E0BA
:1073E800401A0C44D968C3F800C0D3F81CE031B186
:1073F8003A1922F07F42C3E90121DE611E460122CB
:107408007346D7E70026B046E1E73446F6697D4A79
:1074180063681268DFF804C2A068991A21F07F41F6
:10742800614500F2A58001442160012222742A6886
:107438000023C4E90133E361002A40F0A2802C60F4
:10744800CAE75A1C9BF80210D2B291428BF800206E
:1074580004BF00228BF80020182202FB03B32A681D
:1074680019799C68022974D003297ED0012918D182
:10747800217CB1B9DA6862601A69A2605A699B69AD
:10748800A361624BE2601B78002BC0D06160BEE74D
:107498009C4200F093809946DB69002BF8D10023C9
:1074A80023749BF800309BF801209A42C9D12B68BD
:1074B8002FB9009A934202D1B8F1000F43D0002BA4
:1074C80079D0D3F800A0524D4E4BD5F804751C68FE
:1074D800DFF84C813E1B98F8003026F07F460336D3
:1074E8009BB94FF48033C5F84433C5F80433494B8E
:1074F8004FF400324FF00109C3F880211A60C5F833
:107508000090FFF7B1FE88F80090B2452CBF5444B4
:10751800A41924F07F44C5F84045D5F80435DB1B91
:1075280023F07F43E41B033324F07F44A3420AD9AA
:10753800D5F80435C5F84035FFF796FE354B4FF4BE
:107548000032C3F80021314B00221A7003B0BDE8A5
:10755800F08F13469146A0E71174D2690123002ADF
:10756800FAD1002B9DD02A609BE700231946F6E745
:10757800D31A23F07F43834234BFC31A0023236006
:1075880053E721681368994213D8591A1160E261C8
:1075980055E7091AD8691A4638B103461868884267
:1075A800F7D3401A1860184613462160E061DC6181
:1075B80012E71346F2E7FFF75FFEC4E74C450DD12B
:1075C800D3692B6053B90F4801920121CAF80810FA
:1075D80003600E4B1970FFF747FE019AE1692368B3
:1075E800C9F81C1011B1086803440B602B689A4253
:1075F80018BF012753E700BF603500206135002020
:1076080068350020643500205835002054350020A6
:107618000010014000E100E048340020FEFF7F0038
:107628005535002008B5FFF727FE104B00200B2228
:1076380018809A700E4B18600E4B18700E4B18700D
:107648000E4B4FF48012C021C3F8802183F8141325
:107658001A6002F18042A2F56F22C2F8080583F889
:107668001113074BD2F804251A6008BD48340020CE
:1076780068350020603500206135002000E100E019
:1076880064350020074B9B784BB132B128B10368B1
:10769800187C20B959745A61704707207047082030
:1076A800704700BF483400202DE9F7431D4FBB78D1
:1076B80005460E4690469BB390B304292ED94369DC
:1076C80073B3437C02A80024012B00F8014D0CBFC2
:1076D8008946A14600F03CF80DF10600FFF77AFD57
:1076E800D0B101230370104B4560D3F80435C0E9CD
:1076F8000498C0E902369DF806307B709DF80700B3
:1077080000F04AF824B9094B4FF48012C3F800215D
:10771800204603B0BDE8F0830424EFE70724F7E729
:107728000824F5E7483400200010014000E100E09B
:10773800064A92783AB130B1426922B10022027405
:107748000221FFF769BD0820704700BF48340020B8
:1077580070B5EFF3108672B60C4A946801239CB991
:1077680093600B4B0B4DD3F8801029401160C3F880
:107778008050D3F8841051604FF0FF32C3F8842052
:10778800047006B962B670BD0370FAE76C35002064
:1077980000E100E0FC06FFBD084B9A6810B55AB13D
:1077A80050B9EFF3108172B6054A1C6814605C6822
:1077B8005460986001B962B610BD00BF6C350020F6
:1077C80000E100E070B5064E0546002456F8243066
:1077D8000BB1284698470134042CF7D170BD00BF7F
:1077E80084350020033080B240F2FD33984230B532
:1077F8001FD8124B1A783AB91C895D892C44044465
:10780800A4B2B4F5806F0AD31A7DA2B99A8BDC8B27
:107818002244024492B2B2F5806F0CD201220A804F
:107828001446142202FB04335A891044588100205C
:1078380030BD0920FCE70720FAE700BFB835002073
:107848000B4A0C4B5188142000FB0131CB6833B92B
:107858000420496810700122074801F0C3BA0523C3
:107868000649137002238B80012200230968F3E77D
:107878009C350020B8350020982A0020803600204A
:1078880007B5002305490093054A096805480823F8
:1078980001F012FA03B05DF804FB00BF8036002047
:1078A80074290300982A002007B500230093014695
:1078B8000823034A034801F0FFF903B05DF804FB0D
:1078C8006C290300982A002013B500230C46009366
:1078D80001460423074A084801F0EEF938B9074B76
:1078E800142202FB04340123237402B010BD0E20BD
:1078F800FBE700BF68290300982A0020B83500205C
:1079080037B50A480A4B42689C881968538803258A
:10791800033305709BB2002000909B0001EB8401AB
:10792800044801F0C9F903B030BD00BF9C35002000
:1079380080360020982A002010B50146044800F03F
:1079480042FE1C22044600210AF01AFE204610BD01
:107958006C3600204388033300EB8303994209D334
:1079680082884FF6FF739A4206D00088B0FA80F0FA
:107978004009704702207047012070472DE9F843FD
:107988000223DFF860800B800D46174600F580560D
:1079980000F108044FF00109B4420FD22368013303
:1079A8000CD031462046FFF7D5FF48B10FB187F814
:1079B800009002280BD14FF480632B80BDE8F88338
:1079C800A368D8F80020934201D9C8F800302B8862
:1079D8006288033313442B806388033304EB8304E6
:1079E800DAE700BFB0350020144A142303FB002057
:1079F80070B50B6844680D4604F580569BB15C88E9
:107A0800033403EB8404B4420BD22368013308D057
:107A180031462046FFF79EFF012809D005D30228EA
:107A2800F1D1002003E00834EDE72C60012070BD9F
:107A38006388033304EB8304E5E700BFB83500200F
:107A4800436873B505460C466BB3254AD1688B422B
:107A580029D31269934226D813F0030223D121496E
:107A68000089098988421ED12868996888421AD1F4
:107A78001D494868834203D900F5805083420ED3DC
:107A88008A6993420DD902F58052934209D20123A3
:107A980023800020B0FA80F0400902B070BD134680
:107AA800F6E70A20F6E7002323801E462388012BE9
:107AB80001D90020F1E7019601A92088FFF794FF7A
:107AC80018B9238801332380F0E7019B2A68996855
:107AD8009142F1D16B60034B1B892B81DDE700BF1D
:107AE800982A00209C350020B83500202DE9F8435D
:107AF8001C461E4B1B7806460F461546002B30D0F9
:107B0800002A30D07CB3DFF86C804FF01409A388CA
:107B1800012B01D90A201AE009FB03F318F80330F6
:107B2800BBB1A3880133A380F1E723681EB199880C
:107B3800328891420DD11FB119883A88914208D1F3
:107B48009A68C5E900230A4B1B892B810020BDE8F0
:107B5800F8832146A088FFF747FF0028E5D1206079
:107B6800DFE70220F3E70520F1E700BF94350020A6
:107B78009C350020B835002008B5074B191D5888DA
:107B8800FFF732FF18B1BDE80840FFF7B9BEBDE8FE
:107B98000840FFF755BE00BF9C3500202DE9F04F87
:107BA800A04FDFF8A49289B00646B8463B6823B9CF
:107BB80049469D4800F041FD3860D8F800502978C2
:107BC8004B1E052B00F21281DFE813F00600760049
:107BD8007600060106015D0126B1944B00225A6029
:107BE800012424E02B79032B1DD8DFE803F01502CC
:107BF800424D8F490B78022B084631D00B7D022B62
:107C08004FF001032ED114225343C2180020C85448
:107C18005068FFF749FE03E001232B71FFF730FEA0
:107C2800002800F0D380814B00225A600E241422D1
:107C3800002103A80AF0A4FC41F61D539C4208BF8A
:107C48000024D8F8003004941A78023A042A00F282
:107C5800D381DFE812F0B401C001E301EB01F201C6
:107C68000023D0E7714A13700023536041F61D5476
:107C7800DDE770497048002302222B718A800122B7
:107C8800096801F0AFF8CBE76A4C00262E7120682E
:107C9800674DFFF709FE694BD4F800C05A881423D2
:107CA8005343EA18EE5451682160A188C2F804C011
:107CB80011810222A280B3E7B5F814A0AA7DDFF8EB
:107CC80070B1AEB1022AEB8806D9142101FB0AB1C2
:107CD800DA1C088902440A81142202FB0ABAC3F595
:107CE8007F43BAF80A20FD331344AAF80A3077E72D
:107CF800142303FB0AB318895C6804EB8004062A82
:107D080005D8DFE802F0264C34421C5866000F24E0
:107D1800AA7DEB88022A06D9142101FB0AB1DA1CD4
:107D2800088902440A81142202FB0ABAC3F57F4378
:107D3800BAF80A20FD331344AAF80A3077E7404816
:107D4800404900234360AB690360FFF779FE0028D0
:107D58005AD00223AB75002300930423EA18214666
:107D6800354800F0A9FF002830D00E24D0E72B6951
:107D7800002B0CBF01230323AB750023009305F1EF
:107D88000C02042304F10801EAE70123AB75002281
:107D9800EB8800929B002A6904F10C01E0E70329B3
:107DA80014BF06230523AB7500230093042305F1B4
:107DB8000802E118D4E70623AB75224B1988204B3B
:107DC8005868FFF781FD04460028A1D109B0BDE835
:107DD800F08F41F61D549BE7002E7FF401AF2B79FD
:107DE800012B33D004D3022B3FF440AF0F241EE7FE
:107DF80002232B710DF10A01EB68039303A8CDE967
:107E08000466FFF71DFE08B90A2410E70498BDF8B8
:107E18000A108388EB8003882B81FFF755FD044601
:107E280027E000BFB43500206C36002094350020D0
:107E3800B835002080360020982A00209C35002084
:107E4800783500208C360020AC350020DFF808A2F9
:107E580003AA53463146A81DFFF748FE044660B9F9
:107E6800BAF804100498FFF72FFD04460A2C3FF4D3
:107E7800FDAE002C7FF4DBAEA8E708223146504661
:107E88000AF07EFBF2E7002E7FF4AAAE6D4B1A7B58
:107E9800B2B11E731A78013A062AA7D801A151F87F
:107EA80022F000BF537F0200797F0200977F020013
:107EB8009D7F0200F57D0200A37F0200B97F0200CA
:107EC8001A78072AE6D801A151F822F0F57E0200B7
:107ED8009D7E02009D7E02001B7F02002F7F020014
:107EE8004F7F02004F7F0200177F02001A89564910
:107EF80001321A8100225A801A730A78B2FA82F281
:107F080052099A720A7DB2FA82F25209DA72012291
:107F180007E04E4958688A884088033202448A80BC
:107F280002221A70B6E7484C5A884849142505FBBE
:107F380002420868546850608888108102228A804A
:107F48000C600622EDE70722EBE79A7A32B9DA7A73
:107F58008AB900221A705A805A6087E63A49002284
:107F68009A72CA68002AF2D1097C0029EFD05A8097
:107F7800FFF702FE53E70022DA72334A116A00293A
:107F8800E7D192F82420002AE3D00122EFE7FFF797
:107F9800B7FC44E7FFF754FC41E706221A702A4A67
:107FA8005B88142101FB03235868FFF77DFC36E743
:107FB80007221A7000225A60FFF762FC2FE701229D
:107FC8008DF80C201A89ADF818209A88DB68ADF86E
:107FD8001A20059310E002228DF80C201A89ADF8BA
:107FE80018209A88ADF81A20DA689B7D05929A1FA6
:107FF800534253418DF81C3003A8FFF7E3FB0026DA
:1080080049461348C8F8006000F042FB01211148B6
:1080180000F0F1FB00287FF4C9ADD7E603228DF804
:108028000C20DA88ADF818201A89CFE70422DB88FB
:108038008DF80C20ADF81830DEE705238DF80C30EC
:10804800DAE700BF9C350020B835002080360020D4
:108058006C3600207C360020903600204068FFF700
:108068009DBD000008B50121044800F0AEFB18B919
:10807800BDE80840FFF792BD08BD00BF7C36002070
:108088002DE9F3419846354B1B7806460D46002BE3
:108098005BD000295BD009884FF6FF73994258D00E
:1080A8006B88002B55D06B689B0754D14AB92F8930
:1080B8000DF102013846FFF795FB30B102B0BDE87B
:1080C800F08113885788ADF8023001A8FFF734FC17
:1080D800044658B9BDF80230214A142101FB032394
:1080E80058890338C01B58810820E7E700238375A7
:1080F800BDF8023083826B68036180F8008001213B
:10810800184800F06DFB2B882381B8F1030F6B88AA
:10811800A38004BF0423A3754FF0000508BF33688C
:10812800E06008BFA361E780658101A90E4800F0FF
:1081380074FA36B1E36833600C4B75601B89B5720D
:108148003381FFF78FFF0020B8E70220B6E705204C
:10815800B4E70420B2E70320B0E700BF943500205D
:10816800B8350020B03500206C3600209C35002042
:1081780008B5084B1A68042A09D01968064A42F853
:1081880021000121184600F02BFB002008BD0C201F
:10819800FCE700BF88360020843500202DE9F04F29
:1081A80089B01422002103A80AF0EAF97B4A13785F
:1081B80003F0FF01009190463BB103A8FFF702FBD3
:1081C8000026304609B0BDE8F08F101D00F01EFBF8
:1081D80005460028F4D14FF010234FF080525B6918
:1081E80011695269DFF8DCA1581C08BF02FB01F3D2
:1081F800CAF810300022A3F540536949CAF80C3078
:10820800504600F025FD06460028DAD11C238C22B2
:108218006449654800F0A2F93746B3464FF00309B0
:108228003446CDF804A0019BD9680BEB0100024647
:108238005BF80110002835D05C4B994232D1416877
:108248005B4B994215D0013399422BD1009BDFF843
:108258006CA1002B59D100225649CAF80000FFF73B
:108268008DFBBAF80420022A14BF082204221743FF
:108278003AE051494FF0140C0CFB04FC01EB0C02E2
:108288004FF0000E01F80CE050600CF110020CF1F8
:10829800080C0A446144FFF771FB47F002070134F8
:1082A800A4B221E000F5805C1168013167D1043285
:1082B8009445F9D1414A116829B902210123106076
:1082C800918000930EE0142262433B4B4FF0020E64
:1082D800991803F802E03A4A486054800134A1F83A
:1082E80008E0A4B247F001070BF5805BBBF5405FDF
:1082F80099D1B9F1010F88BF3D46EDB2022D02D0E8
:10830800062D12D0DDB90B265BE72B4B14226243F6
:1083180099184FF0020C03F802C00134DAF8002073
:108328004A60A1F808C0A4B295E7012388F8003094
:1083380003A80023C8F80430FFF744FA41E702A86D
:10834800FFF7FAFAC8B10123013D03700A2D09D8D5
:10835800DFE805F006080608070807080F110F00F0
:108368000023037102A9104800F057F9FFF77AFEBD
:1083780027E70323F5E70223F3E7082621E70E4959
:108388001422624301EB020C09F1FF39CCF8040016
:1083980003201FFA89F9885481E700BF943500202B
:1083A800682B0300E03500206C360020DEC0ADDE0F
:1083B800FE011EF184360020B835002080360020EA
:1083C8009C350020982A002073B50D460446C8B194
:1083D800C1B10DF10601FFF733FBA8B10B4BBDF896
:1083E80006006668142202FB003001210C3000F000
:1083F800F7F963682E600C336B600123A3720020C9
:1084080002B070BD0520FBE70A20F9E7B835002067
:1084180013B50446A8B10DF10601FFF711FB90B1A1
:108428000B4ABDF80630142101FB0323DA6862B158
:10843800A27A52B1DA680020013ADA60A07202B07A
:1084480010BD0520FBE70A20F9E70620F7E700BF83
:10845800B835002002230022FFF712BE18B103230B
:108468000022FFF70DBE052070470000104B1B7857
:1084780013B50446ABB14FF6FF73984213D001A869
:10848800FFF75AFA88B10523037001230371C480EA
:1084980001A9084800F0C1F8FFF7E4FD002002B088
:1084A80010BD0220FBE70420F9E70820F7E700BF2A
:1084B800943500206C3600200E4B1B7807B5A3B10D
:1084C80001A8FFF739FA90B10623037001A90A48F9
:1084D80000F0A3F8094B1A780AB101221A73FFF7C2
:1084E800C1FD002003B05DF804FB0220FAE7082074
:1084F800F8E700BF943500206C3600209C3500203A
:1085080007B5ADF8060002A820F8041D01460DF1D4
:108518000600FFF7EBFA03B05DF804FB13B502ACF5
:10852800134624F8020D0A4600202146FFF7DEFA1A
:1085380002B010BD13B502AC134624F8020D0A466A
:1085480020460021FFF7D2FA02B010BD20B119B1C0
:1085580003680B60002070470520704710B561B1B3
:10856800B2FBF3F403FB1424A4B244B9C0E9001429
:1085780084608281C381204610BD0E20FCE709205B
:10858800FAE782B050E8022FC188B2EB324F4FF0C1
:10859800000317BF92B241EA014142EA014104E0F7
:1085A8004268B2EB324F08BF012340E80212002AAA
:1085B800E8D18DF807309DF80730002B0CBF11204B
:1085C800002002B0704737B550E8013F9DB2C4891A
:1085D80025448489A54228BF2D1B0489A54202BFD2
:1085E800BFF32F8F002207E0C5EA030540E80154D6
:1085F800002CE9D14FF001028DF803200193019B73
:108608009DF803200B6002F0FF0322B10B8800687D
:10861800184403B030BD1846FBE70A884B889A42D5
:1086280009D150E8012FC2EA024240E80123002B99
:10863800F7D1012070470020704737B550E8023F56
:108648001FFAA3F5C488A54202BFBFF32F8F0022EB
:108658000DE0C48925448489A54228BF2D1BC3EA9F
:10866800054540E80254002CE8D14FF001028DF88E
:1086780003200193019B9DF803200B6002F0FF0388
:1086880022B14B880068184403B030BD1846FBE798
:108698000A884B889A4209D150E8022FC2EA22423E
:1086A80040E80223002BF7D10120704700207047D3
:1086B80001F01F024B090121914000EB830000F0FB
:1086C80063B84B0910B501F01F040121A14000EB6C
:1086D800830000F04EF8E04000F0010010BD01F00A
:1086E8001F0301229A404B0900EB8300D14300F09D
:1086F80061B84B0901F01F0150F82300C84000F091
:10870800010070472DE9F0474E1E760980460F4656
:108718000136002558F8254008EB850AE44394FA09
:10872800A4F4B4FA84F44FEA4519202C06D1013593
:10873800AE42EFD83C462046BDE8F0874C44A742FD
:10874800F5D921464046FFF7BCFF0028F3D0DAF8F8
:108758000040E44394FAA4F4B4FA84F4E5E750E85A
:10876800002F0B4640E8003C9CF0000FF7D1104664
:10877800704750E8002F42EA010340E8003C9CF0B3
:10878800000FF6D11046704750E8003F43EA010257
:1087980040E8002C9CF0000FF6D11046704750E8D6
:1087A800002F02EA010340E8003C9CF0000FF6D1DC
:1087B8001046704750E8003F03EA010240E8002CE9
:1087C8009CF0000FF6D11046704750E8002F02EBDE
:1087D800010340E8003C9CF0000FF6D110467047BA
:1087E80050E8003F03EB010240E8002C9CF0000F2A
:1087F800F6D11046704750E8003FA3EB010240E86D
:10880800002C9CF0000FF6D1104670470121FFF7AD
:10881800B0BF0121FFF7B8BF0021FFF7C0BF10B5F7
:1088280090B1D0E9012301689B1ADBB20A60013BD1
:10883800DBB2FF2B026802D10020107110BD116855
:108848004C1C14600B70F2E70E20F7E737B50546AD
:1088580002A8002400F8014DFEF77AFF2A686B6829
:10886800116899420ED9481E106011F8014CEB6846
:10887800298A01FB0434AB6811791B1ADBB29942CF
:1088880038BF13719DF80700FEF786FF204603B036
:1088980030BD37B5054602A8002300F8013D0C4657
:1088A800FEF756FF2A681368591C1160E968641AB4
:1088B800298AB4FBF1F41C709DF80700FEF76CFFE1
:1088C80003B030BD826810B504462AB14369016817
:1088D800006998470023A36010BD0EB403B503993F
:1088E80029B102AA04AB42F8043D00F06BF802B0CB
:1088F8005DF804EB03B07047826830B40468551C17
:108908008560A154D0E901329A4202D330BCFFF706
:10891800D9BF30BC704700002DE9F84F9946DDE912
:108928000A431746824688460A460126BA420FD2AB
:108938004E4538BF4E4613F0010B01D164B90024EF
:108948000125B9F1010F1AD909F1FF397D43F8E77B
:10895800B2FBF7F20136E9E79B070ED5B9F1000F34
:108968000CBF30252025A642EAD2013C29465046B4
:10897800FFF7C2FF002CF6D1E1E72025F3E7B8FBAB
:10898800F5F39F42E2D9DFF83890B8FBF5F350468B
:1089980019F8031005FB1388FFF7AEFFB5FBF7F5D1
:1089A800002DF2D1BBF1000F02D00CB1A64201D3C9
:1089B800BDE8F88F20215046013CFFF79DFFF4E702
:1089C8007C2903002DE9F74F054690460E460029FD
:1089D80000F03A8116F8011B002958D0252940F0EB
:1089E800D180002702E047F001071646324612F808
:1089F800013B2D2BF7D0302B04D02B2B05D147F082
:108A08000407F2E747F00207EFE700242A2B06F1F4
:108A180001021BD1D8F80030191D1B68C8F80010D6
:108A28001C44164633782E2B1CD101364FF0000A11
:108A3800314611F8012BA2F13000092814D80A2375
:108A480003FB0A23A3F1300A0E46F1E712F8013CB2
:108A5800A3F130010929E5D80A2101FB0434303C8F
:108A68001646D3E74FF0000A324612F8011B01F010
:108A7800FB0068281646F8D0692916D054D858291A
:108A880070D00ED825297DD03378002BA2D12B7B2E
:108A9800002B00F0D980284603B0BDE8F04FFFF75F
:108AA80011BF632968D06429EED1D8F80020D2F824
:108AB8000090111D89EAE972C8F80010A2EBE9726A
:108AC8004FF0010B092A61DCD34538BFD3462CB1DE
:108AD800B9F1000F01DB790700D5013CBA0702D5CF
:108AE800BAF1000F04D0FB0702D4002C54D10024A3
:108AF800B9F1000F58DAC9F100092D212846FFF70E
:108B0800FBFE07F00302022A05D1BAF1000F02D1D9
:108B1800002C4DD10024CDE9004753460A2249468E
:108B28002846FFF7F9FEAFE7732954D016D8702905
:108B3800AAD1D8F800301A1DC8F8002030212846DC
:108B48001C68FFF7D9FE78212846FFF7D5FE0022DA
:108B58000823CDE9003221461022E1E775292FD0FC
:108B6800782991D1D8F800100A1DC8F80020CDE95D
:108B78000047534610222CE0D8F800301A1D197807
:108B8800C8F800202846FFF7B7FE7DE70A230BF157
:108B9800010B92FBF3F295E7A345A9D220212846C1
:108BA800013CFFF7A9FEA0E77807AAD52B21A5E786
:108BB800A345B0D230212846013CFFF79DFEA7E728
:108BC800D8F80010CDE900470A1DC8F80020534620
:108BD8000A220968A4E7D8F800301A1DC8F800204E
:108BE800F907D3F8009012D54F46A7EB090B17F8F1
:108BF800011B41B9A345BFF447AF20212846013CDA
:108C0800FFF77AFEF6E72846FFF776FEEDE7B9F1BB
:108C1800000F17D0484609F008FD0746BC4200D9A6
:108C280054B909F1FF3919F8011F00293FF42CAF95
:108C38002846FFF761FEF6E720212846013CFFF7AA
:108C48005BFEEBE74F46E9E703B0BDE8F08F0000B5
:108C580007B50B4688B9124B1248134AC01A0E239F
:108C6800C0080093114B0004114940F00100FDF7C2
:108C7800F7FE0E2003B05DF804FB4BB9084B09481A
:108C88000C4AC01AC0080E2300930004074BEBE7F8
:108C980003601B68114603B05DF804EB184700BF7A
:108CA8004027030090270300392A03008C2903007A
:108CB8003E2A0300B52A03002DE9F34188B93D4B4C
:108CC8003D483E4AC01AC0080E243D4B009400049B
:108CD8003C4940F00100FDF7C3FE204602B0BDE864
:108CE800F0814AB9334B3448374AC01AC0080E24B9
:108CF80000040094324BEBE7D0F800C0BCF1000F41
:108D080009D12C4B2C48314AC01AC0080824000449
:108D180000942B4BDCE74BB9264B27482C4AC01A4A
:108D2800C008092400040094254BD1E74768D7F808
:108D38000480B3FBF8F708FB17374FB11D4B1E48EB
:108D4800244AC01AC0080924000400941C4BBFE739
:108D58008F0709D0174B18481F4AC01AC00810249B
:108D680000040094164BB3E712F0030F09D0114B1F
:108D780011481A4AC01AC008102400040094104B65
:108D8800A6E7C768B9420BD34C1E05691C44AC4220
:108D980006D8DCF80C40A44602B0BDE8F0416047B4
:108DA800044B05480E4AC01AC00810240004009459
:108DB800034B8DE74027030090270300392A03005F
:108DC8009E2903003E2A0300BB2A0300AF2A0300A2
:108DD8006E2A0300C12A0300EB2A0300032B0300B9
:108DE800262B0300F7B580B92A4B2B482B4AC01A0B
:108DF800C0080E242A4B009400042A4940F00100C0
:108E0800FDF72EFE204603B0F0BDD0F800C0BCF13F
:108E1800000F09D11F4B2048234AC01AC008082454
:108E2800000400941E4BE8E74AB91A4B1A481F4A37
:108E3800C01AC008092400040094194BDDE74768EC
:108E4800D7F800E00EF1FF370F4209D0114B124856
:108E5800174AC01AC008102400040094104BCCE72D
:108E6800C768B9420CD34C1E05690EFB0244AC42DC
:108E780006D8DCF81040A44603B0BDE8F0406047CF
:108E8800044B05480B4AC01AC0081024000400947B
:108E9800034BB2E74027030090270300392A030059
:108EA800B12903003E2A0300AF2A03006E2A0300FB
:108EB800C4290300EA29030029DF704728DF704727
:108EC80070B503689D6886B004460E466DB11422DD
:108ED8000021684609F054FBA3680593237901969D
:108EE8002BB1012B0DD06846A84706B070BD0123F1
:108EF8008DF8003023690293E36803936369049350
:108F0800F1E702238DF80030E3681B030293F5E7CD
:108F18000846704700207047024B187A003018BF87
:108F28000120704734370020034B187A0122B0FA29
:108F380080F05A74400970473437002008B510464D
:108F48001A4609F0F4FA002008BD000008B51422FA
:108F58000021044809F014FB0348FFF712FB002026
:108F680008BD00BF343700202437002010B5094C55
:108F7800094B43602046FFF749FC40B908F030FF31
:108F88001C2320748C2205490548FFF7E7FA0020C6
:108F980010BD00BF343700205C2B0300983600203A
:108FA8002437002070B5244D244E2B7A2C463BB92B
:108FB80023492448FFF741FB306008B9686070BD59
:108FC8000223237233681A7972B1012A24D0184611
:108FD8000321FFF775FF00232372636018491948BE
:108FE800BDE87040FFF754BBD3E90520121AB2F56B
:108FF800805F28BF4FF48052D3E903159208012AF5
:10900800014438BF01222844FFF756FF50B1112808
:10901800DDD101232372D2E7D3E903021044FFF71D
:109028004DFFF3E7237C002BC9D10146BDE8704012
:10903800022000F009B800BF343700204C37002068
:10904800483700202437002038B5831E012B45D827
:10905800234C237A002B41D0022B09D1032830D08E
:10906800204B1B680022E2601A793AB1012A22D00B
:10907800637C7BBBBDE83840FFF794BFD3E905129A
:109088008D1AB5F5805F94BF521902F580529A6126
:109098009142EDD102284FF0000308BF1946237210
:1090A800104B18BF0D211868FFF70AFF0E490F482B
:1090B800FFF7EEFADCE71A6901321A615B699A4236
:1090C800E7E7E3680133082B01D8E360D0E7002322
:1090D800E360DFE7BDE8384008F072BE38BD00BF86
:1090E800343700204C370020483700202437002030
:1090F80000F0FD03012B08D1044B00225A74421ED4
:10910800504250411874FFF74DBF70473437002064
:1091180010B5064C201DFFF779FB28B9637C1BB9F5
:10912800BDE81040FFF73EBF10BD00BF3437002038
:109138002DE9F34180460D460F4801A916461F4602
:10914800FFF741FA0446A8B11C22002109F018FAD9
:109158002D0B0123237101A9C4F80080A760E560E5
:1091680066610548FFF759FAFFF7D2FF002002B001
:10917800BDE8F0810420FAE7243700202DE9F74301
:1091880081468846104801A917461E46FFF71BFA74
:109198000446B0B11C22002109F0F2F900250A9B0F
:1091A800A36001A92571C4F80090C4E90378666139
:1091B8000548FFF732FAFFF7ABFF284603B0BDE8D2
:1091C800F0830420FAE700BF243700202DE9F04798
:1091D800B0F806904479D2F800A09DF8208009FBE9
:1091E80004F4043C06460AEB0300A0420F4688BF7D
:1091F800A4EB030A191DC2F800A0B1FBF9F509FB9D
:1092080015114DB9A9EB0104544528BF5446BAF1CC
:10921800000F04D1BDE8F0873668013DF1E704315D
:109228007B1970182246B8F1000F0ED00146184677
:10923800AAEB040A09F07BF9D145254436684C4667
:109248004FF0000128BF5446E1E71946F0E7FFF761
:10925800E6BAF8B546790146721E054600239342E0
:109268002D6803D30024A64202D8F8BD0133F6E7DF
:109278000F682846FFF70DFB01343946F3E72DE95F
:10928800F843068ACD1C0746FFF7E0FA043E35444A
:109298000446B5FBF6F5F0B14FF48073EDB2838068
:1092A800C680013D076081464FF00008A84512D2EC
:1092B8003846FFF7CBFA064648B163790133637144
:1092C80008F10108C9F8000007608146EEE720466A
:1092D800FFF7BFFF34462046BDE8F883012104307C
:1092E800FFF77EBA10B5012104460430FFF783FA70
:1092F80010F0FF0F04D12046BDE81040FFF7A9BFCA
:1093080010BD1FB504AC44F8042D0022009222467B
:10931800FFF75CFF04B010BD1FB504AC44F8042D82
:10932800012200922246FFF751FF04B010BD41DF31
:1093380070470000064B10B500241C70054B1C60DC
:10934800BFF35F8F0449054800F039F8204610BD87
:10935800583700205C370020882B03005037002046
:1093680007B502A8002300F8013DFEF7F1F9F1EE78
:10937800103A23F09F03E1EE103ABFF35F8F0A4BD8
:109388004022C3F884219DF80700FEF705FA08F08B
:1093980027FD20B1FFF7CBFF03B05DF804FB20BF2A
:1093A80040BF20BFF8E700BF00E100E0836800226B
:1093B8005A609A60C3E90422DA601A6070470B6841
:1093C8004A684360934208BF0023016008BF4360B6
:1093D8007047436843B10268916852680B449342EE
:1093E800436004BF00234360704700000D4930B557
:1093F800A1F594720225914201D800200EE08B1A43
:10940800DB1093FBF5F302EBC30452F833308342CD
:1094180005D802D204F10802EDE7606830BD2146A4
:10942800E9E700BFD82C030008B5FFF7DFFF024BC0
:10943800002808BF184608BD9D2B03000B7B23B1ED
:109448004B6803600023037170470B6803600123B6
:10945800F9E703684A68896810B5D41A8C428BBF4B
:109468005B1800230360026098BF037110BD036896
:109478000A68896810B59C1A8C428BBF5B1A012355
:109488000360026098BF037110BD037910B50446EC
:109498001BB1FFF7DEFF206810BDFFF7E8FFFAE712
:1094A8000648074A03780749D35C012213B1043000
:1094B80001F0BCBA0C3001F09BB800BFB42A002000
:1094C800A8370020883700200648074A037807494C
:1094D800D35C012213B1043001F058BA0C3001F00A
:1094E80031B800BFB42A0020A837002089370020EF
:1094F80037B50578012D04D035D3022D28D003B017
:1095080030BD43681F4C1978204600F0D4F878B174
:109518001D4B01908DF800501B6868469847A1685C
:10952800E368A2885B1A9A420ED3FFF7B9FFE6E711
:10953800A268E3689A42F2D002AB134A03F8080D16
:10954800126818469047EAE7104B01221A70D6E7CE
:10955800C36801938DF80050FFF7A2FF0A4B1B6800
:1095680068469847CBE70A490A4800F0B6F810B9A8
:10957800FFF7AAFFC3E702A8032300F8083D024B40
:109588001B68EEE76437002060370020743700203E
:109598008937002078370020F0B51F46234B89B063
:1095A80006461A600C4600293DD08A88204809687A
:1095B80000F072F8002834D1A289A1681D4800F093
:1095C8006BF800282DD11C4D0FCD6C460FC495E8C3
:1095D8000F0084E80F0073690693337C174A184814
:1095E8008DF81C70003318BF01238DF81430737C7C
:1095F800002B14BF0E2300238DF81530F368029357
:10960800B36803933368019369467368009300F065
:1096180033FB30B90B4B18703368013301D0FFF7B7
:109628003FFF09B0F0BD0720FBE700BF603700200F
:10963800643700207837002094300300F994020042
:10964800B42A00207437002010B501460E4800F0F7
:1096580032F80446A8B90D480D4A0378D35C63B1C3
:10966800043001F0D7F960B90A49074800F035F825
:1096780038B9BDE81040FFF727BF0C3000F0ACFF49
:10968800F1E7204610BD00BF78370020B42A00203B
:10969800A83700208937002049B152B1531E1A401B
:1096A80007D1826001608380C260104670470E2037
:1096B80070470920704710B58468C2688388121BF8
:1096C800934208D3C26813400268D154C368013377
:1096D800C360002010BD0420FCE78268C3689A427A
:1096E8000AD08268838813400268D35C0B70836851
:1096F800013383600020704705207047BFF34F8F08
:109708000549064BCA6802F4E0621343CB60BFF315
:109718004F8F00BFFDE700BF00ED00E00400FA0531
:109728000C4B1B78062B10D10B4B1B681A070CD15E
:109738000A4B186800F0F003302B08D000F0E00066
:10974800A0F140035842584170470020704701205B
:10975800704700BFE00F00F0E40F00F0E80F00F0E2
:10976800094B1B78062B0CD1084B1B681A0708D12C
:10977800074B186800F0F000A0F130035842584138
:1097880070470020704700BFE00F00F0E40F00F0C2
:10979800E80F00F008B5FFF7C3FF28B1894B8A4AE4
:1097A8001B68C3F304231360FFF7DAFF10B1874B7C
:1097B800874A1A60FFF7B4FF28B1864B864A1B68B0
:1097C800C3F342331360FFF7CBFF20B1834AD3685A
:1097D80023F08073D360FFF7A3FF40B14FF08043BD
:1097E8000022C3F80C21C3F81021C3F83825FFF76D
:1097F800B7FF10B17A4B03221A60FFF7B1FF40B1EF
:10980800784B05221A6001229A6700229A603F224B
:109818005A60754B1B78062B50D1744B1B68180780
:109828004CD1734B1B6803F0F003502B46D14FF01B
:109838008052704BD2F80414C3F82015D2F80814DB
:10984800C3F82415D2F80C14C3F82815D2F810144C
:10985800C3F82C15D2F81414C3F83015D2F818141C
:10986800C3F83415D2F81C14C3F84015D2F82014E4
:10987800C3F84415D2F82414C3F84815D2F82814AC
:10988800C3F84C15D2F82C14C3F85015D2F830147C
:10989800C3F85415D2F83414C3F86015D2F8381444
:1098A800C3F86415D2F83C14C3F86815D2F840140C
:1098B800C3F86C15D2F84424C3F87025FFF730FFBD
:1098C80028B14D4B4D4A1B6803F04F031360FFF757
:1098D80027FF48B14FF08043D3F80024D10744BF95
:1098E8006FF00102C3F80024454B1B68062B08D112
:1098F800444B1B68062B01BF434A136843F480633B
:109908001360424AD2F8883043F47003C2F88830B2
:10991800BFF34F8FBFF36F8F4FF01023D3F80C2294
:10992800D2071ED53A4B0122C3F80425D3F80024E8
:10993800002AFBD04FF01022D2F80C3223F001039A
:10994800C2F80C32324B1A46D3F800140029FBD067
:109958000021C3F80415D2F80034002BFBD0FFF720
:10996800CDFED3F80022002A03DBD3F80432002B03
:1099780023DA274B0122C3F80425D3F80024002A50
:10998800FBD04FF010221521C2F80012D3F80024A2
:10999800002AFBD04FF010231522C3F804221C4BD9
:1099A8001A46D3F800140029FBD00021C3F8041587
:1099B800D2F80034002BFBD0D1E7164B164A1A60B8
:1099C80008BD00BF240300104035014074C00740A3
:1099D8000DF0ADBA440200103C050040F0ED00E087
:1099E800A005004010560040E00F00F0E40F00F022
:1099F800E80F00F000C0004058020010E40E0040DC
:109A080030010010340100103C17004000ED00E068
:109A180000E00140C82A00200090D003054A4FF01A
:109A2800A043105CD3F8043523FA00F000F00100DD
:109A3800704700BFB4300300044B1A5C0123934005
:109A48004FF0A042C2F80835704700BFB430030099
:109A5800044B1A5C012393404FF0A042C2F80C3526
:109A6800704700BFB430030008B50020FFF7F0FFCF
:109A78000120BDE80840FFF7EBBF08B50020FFF75D
:109A8800DBFF0120BDE80840FFF7D6BF074A4FF0CB
:109A9800A041105CD1F804350122824022EA03007B
:109AA8001340C1F80805C1F80C357047B4300300FD
:109AB8004FF0A0430120D3F810357047233818BF62
:109AC8004FF0FF30704723207047C20708B50146A2
:109AD80009D54FF0A04340F20322C3F83C27C3F84E
:109AE8004027FFF7C1FF8B0742BF4FF0A0430C226E
:109AF800C3F88C2708BD000038B5084C04F10803EA
:109B08000546002818BF1C4623682BB11A68226036
:109B18005B6828469847F7E738BD00BF94370020B0
:109B280020B9054B01225A70FFF7E6BF012802D180
:109B3800014A9070F8E770478C37002020B9034B32
:109B480001225A70FFF7D8BF704700BF8C3700203A
:109B580038B50B4C237883B90A486360A360236146
:109B6800E36000F0D1F8054608F03AF908B900F0CA
:109B7800D9F801232370284638BD8525FBE700BFA7
:109B88008C370020299B020037B502A80023094C16
:109B980000F8013DFDF7DCFDE368013BE360E568A3
:109BA80015B900F0D3F8A5709DF80700FDF7F4FD8E
:109BB80003B030BD8C370020012813B509D003D37A
:109BC80003281BD002B010BD0F4B0122C3F8802020
:109BD800F8E702A800230D4C00F8013DFDF7B8FD99
:109BE80023780BB9FFF7B4FFE3689DF8070001334A
:109BF800E3600123A370FDF7CFFDE3E700F092F8DF
:109C0800FFF7C2FFDEE700BF00E100E08C3700206D
:109C18001FB503788DF8003043680193037A8DF8F7
:109C28000830C3680393054A054B684653F821304A
:109C380052F82110984705B05DF804FBA0370020C2
:109C4800A43700201FB503788DF8003043680193CE
:109C580083688DF80830C3680393054A054B684646
:109C680053F8213052F82110984705B05DF804FBED
:109C7800A0370020A4370020F0B5194B067891F8DA
:109C88001DE043F82620174B94460A6943F826201E
:109C9800154B03F806E00C4607460FCC89B06D4615
:109CA8000FC594E80F0085E80F000496BEF1000F79
:109CB8000AD0BCF1000F0D4A694608BF0022381DC2
:109CC80000F09CFD09B0F0BDBCF1000F084A6946E0
:109CD80008BF002207F10C0000F074FBF2E700BF98
:109CE800A4370020A0370020A8370020199C0200C4
:109CF8004D9C020000F18040002382B0036003689D
:109D08000193019B02B07047054A13792BB90121D1
:109D1800106011715371184670478520704700BF55
:109D2800AC370020084B1A68D20706D4C02283F843
:109D380000230122C3F880211A604FF080430122DA
:109D4800C3F81825704700BF00E100E0044B01226A
:109D58001A604FF08042D2F81834DB03FBD4704706
:109D68000C000040124B1B6810B573B14FF48070A3
:109D7800FFF7C0FF4FF080430122C3F808230D4BC3
:109D8800587910B95A711B6898470B4B1B6873B107
:109D98004FF48270FFF7AEFF4FF080430222C3F802
:109DA8000823044B01201B68BDE81040184710BD6C
:109DB80000010040AC3700200401004000F1804061
:109DC80000F5C040002382B0036003680193019B43
:109DD80002B07047800000F1A040D0F8003723F4AB
:109DE8004033C0F80037D0F8003743EA0141C0F8E3
:109DF80000177047054B4FF0FF32072843F8202023
:109E080084BF1B1883F84820704700BFB437002070
:109E180010B5174C94F8583043BBFF21E2180133B2
:109E2800202B82F83010F9D10021C8B2FFF7E2FFE9
:109E380001310C29F9D1042200210E4808F0A0FBB9
:109E48000D4BC02283F806234022C3F880214FF42B
:109E5800BE701A60FFF7B2FF084B4FF00042C3F81C
:109E68000423012384F85830002010BD0820FCE7A3
:109E7800B43700200838002000E100E0006000400E
:109E8800034B93F85800003018BF0120704700BFFB
:109E9800B4370020F0B5394D2C18944694F9304069
:109EA800002C68DA8E78C6F34006002E15BF002312
:109EB800082308270C27BB4201D10420F0BD55F820
:109EC800232001324FEA830441D12F1845F823C0DB
:109ED80087F8303016B9EA1882F848008A785607A9
:109EE80016D4D70735D5820002F1A042D2F8006710
:109EF80026F00206C2F80067214FC60800F0070CDA
:109F0800012202FA0CF217F806C042EA0C02BA550E
:109F18008A780E7812F0020224D004F1804303F507
:109F2800C0430002D3F8102522F4473222F44072CD
:109F3800C3F810253604D3F8102500F4F85006F4B9
:109F4800403630431043C3F810050020B6E701330C
:109F5800B1E74E7800F5E0724FF0A047B60047F839
:109F68002260C9E7083B2B4493F8500040EA861664
:109F780083F85060E9E70820A0E700BFB437002065
:109F88000838002038B5204C251895F93020072AC4
:109F980018DD224492F848309B09032B0DD14FF06D
:109FA800A043D3F81035C34013F0010F0CBF0221B2
:109FB8000321BDE83840FFF70DBF012B14BF032173
:109FC8000221F6E7D3B2072B1CD8930003F1804394
:109FD80003F5C043D3F8100540F00100C3F810059D
:109FE80002F14000800080B2FFF7E8FE51B195F918
:109FF800303054F823302BB1012303FA02F2034B1B
:10A00800C3F8042338BD00BFB43700200060004007
:10A018004FF0A043D3F8103523FA00F000F0010008
:10A02800704700002DE9FF470024584A584E594D03
:10A03800019401211368A2F5C040012B80B206D11A
:10A04800D6F804330B4202D0FFF7B8FE0C430432B3
:10A05800AA424FEA4101EDD14F4B1B68012B0AD1AF
:10A068004FF4BE70FFF7AAFE4FF0A04344F000443F
:10A07800D3F81035019314F0FF0F1AD0474F00257D
:10A088000126344210D0AB0003F1804303F5C043EE
:10A09800D3F81005D3F8101557F82530C0F304206D
:10A0A800C1F3014103B198470135082D4FEA46062F
:10A0B800E7D1002C66DA00224FF0FF33CDE9022306
:10A0C800DFF8D8900127002634464FF0A04809EB66
:10A0D800060393F95020531C45D0D2B222F0C00594
:10A0E800E90804A8084402F0070310F804CC07FAAA
:10A0F80003F31CEA030F36D009EB050C92099CF90F
:10A1080030C059F82CA0BAF1000F0AD1032A2AD17D
:10A118000DF1080E1EF801C04CEA030C0EF801C040
:10A1280001E0032AF4D005F5E07110F80C0C58F89A
:10A1380021101842C1F3014105D0022913D1032A85
:10A148000BD1114604E003290DD1032A05D10221C0
:10A158002846FFF73FFE0134E4B2BAF1000F02D0FF
:10A1680011462846D0470136042EB0D154B14FF0DD
:10A17800A043019AD3F81035934203D00193029B70
:10A188000393A0E704B0BDE8F08700BF006100407A
:10A1980000600040206100407C610040B43700202E
:10A1A800014B1B68184700BF103800200D4B984220
:10A1B80037B50D4610D102A8002300F8013DFDF780
:10A1C800C7FA094B1C7914B901221D601A719DF850
:10A1D8000700FDF7E1FA14B9002003B030BD1120E3
:10A1E800FBE700BF00200040103800200023435048
:10A1F80082B043580193019B02B070470A4610B5DC
:10A208004FF48E71FFF7F2FF136A9168C95C136A05
:10A2180001331362C0F81C1510BD024608B54FF48F
:10A2280092710068FFF7E2FF4FF484711068FFF73E
:10A23800DDFF136801221A6008BD8B690A4610B554
:10A248004FF4847123B9FFF7D1FFD0F8183510BD4A
:10A25800FFF7CCFF536AD168D0F81805C854536A81
:10A2680001335362F3E700001FB501238DF8003076
:10A27800044BCDE90110D3E900126846904705B0B8
:10A288005DF804FB1838002030B54C4AD2F8043386
:10A2980013F4007F85B015464FD0D2F82431002B37
:10A2A8004BD04FF492711046FFF7A0FF4FF40173A3
:10A2B800C2F80833424B93F8291009B901215160BB
:10A2C8003E4902228DF80020D1F88024C1F880246C
:10A2D80003929A690292DA6801920022C3E906227F
:10A2E8006846D3E9001290473448D0F81C315BB176
:10A2F80033490A6A4B699A420A464BD291F8283088
:10A30800002B47D1FFF77AFF2C4AD2F8443193B19A
:10A318004FF4A2711046FFF769FF294B93F82910F3
:10A3280009B1012111609A692AB100229A61586A1B
:10A33800D968FFF799FF05B030BDD5F804335B073E
:10A34800D2D5D5F80831002BCED01D4C1B4821465C
:10A35800FFF773FF636AA2699A422346C4D1E26990
:10A36800E1684AB12369E3600023606AA261E3619E
:10A378006362FFF779FFB7E794F829200AB9012249
:10A388006A600E4A4FF40170C2F8080300229A610D
:10A39800586AEEE74FF48E710848FFF727FF5169B6
:10A3A8000029B1D00023029191688DF80030019105
:10A3B80053616846D2E900139847A5E7002000409A
:10A3C800183800202DE9F8435A4B047991462C227D
:10A3D80002FB0432064692F82A200D469846002AC7
:10A3E80040F0A38054490068FFF7E0FE07460028C4
:10A3F80040F09D8029683368481C0BD04FF0A0407E
:10A4080001228A40C0F8082501F5E07240F2032CC9
:10A4180040F822C06868421C1FBF00F5E0724FF088
:10A42800A04C4FF0000E4CF822E0AA6995F814C031
:10A43800C3F824256A7DBCF1010F4CEA0202C3F877
:10A448006C25C3F81405C3F80C151DD1AA68511C56
:10A458001FBF02F5E0714FF0A0404FF0000C40F82C
:10A4680021C0E968481C0BD04FF0A04C012088405F
:10A47800CCF8080501F5E07040F2032E4CF820E016
:10A48800C3F80815C3F810252C23634308EB03020F
:10A49800C2F804902A6948F80320B9F1000F31D0B6
:10A4A8004FF48E7130682D7FFFF7A0FE30684FF4AF
:10A4B800A271FFF79BFE3268204BC2F80433120BDF
:10A4C80053B2002BA8BF03F160404FEA53134FEA81
:10A4D8004511BABF1A4802F00F0500F561404FEA6E
:10A4E8008303C9B203F16043B4BF415580F8001338
:10A4F80003F5614302F01F02012101FA02F2C3F8D9
:10A5080080211A6033680422C3F800252C2303FB3A
:10A5180004830022C3E9062283F829205A61012214
:10A5280083F82A203846BDE8F8830827FAE7112778
:10A53800F8E700BF1838002091A20200800002004E
:10A5480014ED00E02DE9F843224F06794FF02C096D
:10A5580009FB067480466569002D37D16261A160E8
:10A5680025624FF48E71006884F82850FFF73EFE8C
:10A57800D8F80000012383602146FFF73FFE636897
:10A58800A1462BBBD8F80050226A63699A4212D3BD
:10A59800D8F80030D3F81C21002AFBD00122DA6059
:10A5A80000202C2303FB067600237361BDE8F883A3
:10A5B80094F8283043B9D5F81C31002BF8D0494617
:10A5C8002846FFF71BFEDFE70F20EAE71120EDE73B
:10A5D8002846EBE7183800200379044A2C2101FBB0
:10A5E80003235869003018BF01207047183800202D
:10A5F8002DE9F843384E05792C2303FB05630746FC
:10A608005C6824B103684FF40170C3F808032C2375
:10A6180003FB0563986950B1D86900283ED024B17E
:10A628003B684FF40172C3F80423112034E09A61A7
:10A63800D9605862D8612C2303FB056393F829304D
:10A648001BB910B93846FFF7E8FD4FF02C0909FB94
:10A6580005683868D8F80430002B34D14FF4A2715B
:10A66800FFF7C4FDC1463868D0F82431D0F8082176
:10A67800D0F84441B2B90CB9002BF4D02C2202FB1B
:10A6880005650022AA611BBB24BB95F829103B680D
:10A698000122B1B11A600020BDE8F8831961DA61BE
:10A6A8000120C8E7002BE9D1002CE7D14946FFF784
:10A6B800C4FDD8F82430D8F818209A42D3D82346B5
:10A6C800DCE75A60E7E74FF40173C0F80433E2E7C8
:10A6D8000320E1E70F20DFE718380020002343506C
:10A6E80082B043580193019B02B070471FB5012304
:10A6F8008DF80030054B8DF8080001916846D3E9C4
:10A708000012904705B05DF804FB00BF44380020F4
:10A718007FB5384AD2F82461002E49D010464FF44C
:10A728009271FFF7DBFF02238DF80030D2F88034F6
:10A73800C2F880340393D2F83C358DF808302E4B9C
:10A74800DA6801920022C3E906226846D3E90012BA
:10A758009047284AD2F8443173B14FF4A271104699
:10A76800FFF7BCFF244B996931B100219961D2F8F8
:10A778003C05D968FFF7BAFF1E4AD2F82031ABB1C1
:10A788004FF490711046FFF7A9FF1B4B596969B147
:10A79800D2F84C158DF80810002299688DF8002021
:10A7A80001915A616846D3E90012904704B070BD20
:10A7B800D2F81031002BCCD04FF488711046FFF737
:10A7C8008DFF0D4BD2F83C0599698842C1D1DC69EF
:10A7D800D96864B1D2F8005225F02005C2F80052B9
:10A7E8001A699C61DA60DE61FFF780FFB1E79C615E
:10A7F800FAE700BF00200040443800202DE9F84364
:10A808005E4B06799146242202FB0632044692F8F2
:10A8180020200D469846002A40F0AB805849006831
:10A82800FFF7C4FC0746002840F0A5802968236884
:10A83800481C0BD04FF0A04001228A40C0F80825E0
:10A8480001F5E07240F2032C40F822C06868421C0F
:10A858001FBF00F5E0724FF0A04C4FF0000E4CF80F
:10A8680022E0AA6995F814C0C3F824256A7DBCF1D2
:10A87800010F4CEA0202C3F86C25C3F80C15C3F8A3
:10A8880014051DD1AA68511C1FBF02F5E0714FF0D5
:10A89800A0404FF0000C40F821C0E968481C0BD0DC
:10A8A8004FF0A04C01208840CCF8080501F5E07075
:10A8B80040F2032E4CF820E0C3F80815C3F8102521
:10A8C8002423734308EB0302C2F804902A6948F86A
:10A8D8000320B9F1000F3BD04FF4887120682D7F19
:10A8E800FFF7FCFE4FF490712068FFF7F7FE4FF476
:10A8F80092712068FFF7F2FE20684FF4A271FFF70B
:10A90800EDFE22681F4BC2F80433120B53B2002B22
:10A91800A8BF03F160404FEA53134FEA4511BABF8D
:10A92800194802F00F0500F561404FEA8303C9B2E8
:10A9380003F16043B4BF415580F8001303F5614348
:10A9480002F01F02012101FA02F2C3F880211A6005
:10A9580023680822C3F80025242303FB068300226A
:10A96800C3E906225A61012283F820203846BDE84F
:10A97800F8830827FAE71127F8E700BF44380020D2
:10A9880019A702001003020014ED00E001F0604373
:10A99800B3F1005F2DE9F041074632D11C4B06792F
:10A9A800242505FB063598466C6964BB6A61A96075
:10A9B80000684FF49071FFF791FE4FF4AC7138685E
:10A9C800FFF78CFE3B686A69A968C3F84415C3F8A9
:10A9D800482501229A606A68BAB9D3F82011D3F8D9
:10A9E800582149B9002AF8D00F20242303FB0686F2
:10A9F80000237361BDE8F081002A14BF0F200020F6
:10AA0800F3E71020F6E71120F4E72046F2E700BF4D
:10AA1800443800200379044A242101FB03235869A0
:10AA2800003018BF0120704744380020F8B501F005
:10AA38006043B3F1005F04460F465ED10379304DA1
:10AA4800242101FB0351486820B121684FF40476A2
:10AA5800C1F80863242101FB03539E6956B1D969E3
:10AA6800002939D020B123684FF40472C3F80423B5
:10AA7800112030E09A61DF60DE614FF48871206850
:10AA8800FFF72CFE4FF4A2712068FFF727FE23681A
:10AA9800C3F83475C3F8382516BB01221A60227929
:10AAA800242101FB0251496809BBD3F81041D3F8AE
:10AAB8004411D3F8240114B909B90028F5D0242386
:10AAC80003FB02550023984214BF032018469942FD
:10AAD800AB6118BF0F20F8BD1F61DA610126CCE712
:10AAE800D3F8002242F02002C3F80022D7E74FF43F
:10AAF8000472C3F804230020EDE71020EBE700BF41
:10AB0800443800200220FEF7C1BF000008B5074BFB
:10AB18001B783BB10020FEF79BFF0120BDE80840F1
:10AB2800FEF796BFBDE80840FEF79EBF69380020D3
:10AB3800F8B57B4C237805461BB100232370FFF73B
:10AB4800E5FF172D00F28880DFE805F00C171743A2
:10AB580054657680888D888D959A9A9A9A9AC4C9F0
:10AB6800D1D9E4E4FFF7D2FF6E48FCF7E1FD6E4B64
:10AB7800002204461A702046F8BD0020FEF74EFF5A
:10AB8800F8B10020FEF764FF022D0CBF4FF4E1611D
:10AB98004FF47A61644B1D704FF400404FF4FA741F
:10ABA8000025E0FB01454FF47A7200232046294630
:10ABB80007F0C2FB002201465A48BDE8F840FCF7FE
:10ABC80073BDFEF739FF022D0CBFC8214FF4C871C1
:10ABD800E0E70020FEF722FF40B10020FEF738FF33
:10ABE8004FF44871504B03221A70D5E7FEF724FF43
:10ABF800C821F7E70020FEF711FF38B10020FEF763
:10AC080027FF4FF47A61484B0422EDE7FEF714FF63
:10AC18004FF4C871F7E70020FEF700FF48B10020A5
:10AC2800FEF716FF404B05221A7041F69A110022D2
:10AC3800C2E7FEF701FFF5E70020FEF727FF3A4BD2
:10AC480006221A70002240F6CD41B5E70020FEF733
:10AC5800F3FE354B07221A7000248CE70120207080
:10AC6800FEF714FFEEE701202070FEF70FFF002229
:10AC78004FF48041A0E7FEF700FF2B4B0C22EAE7D8
:10AC88002A482B4EFCF754FDD5F1110504461CD07B
:10AC9800D8B9012D13D0C8235D434FF400474FF4B2
:10ACA800FA7000214FF47A720023C7FB050107F000
:10ACB80043FB224601461D48FCF7F6FC04460220E9
:10ACC800FEF7BAFE0123337055E70220FEF7C0FEF7
:10ACD8000023F8E7FFF71AFF134B1222BBE7FFF731
:10ACE80015FF0020FEF7A8FE0F4B1322B3E7FFF76E
:10ACF8000DFF0120FEF7A0FE0B4B1422ABE7FFF778
:10AD080005FF0020FEF798FE0120FEF795FE064B92
:10AD18001522A0E7FEF7B1FE034B1D709CE700BFAC
:10AD2800D4380020AC380020DC3800206C380020F3
:10AD380069380020044B1B68DB0703D5034B1878E0
:10AD4800FFF7F6BE704700BFD0380020DC3800207F
:10AD58002DE9F04107460C46FEF7B0FE20B9012C5C
:10AD680004D01DD3022C25D0BDE8F081134D6A789C
:10AD78002C7842B1124E134832464FF40041FCF78A
:10AD880093FC00B93770104BAA781A70002CEBD0DE
:10AD98000E4B1B68002BE7D02046BDE8F041184752
:10ADA8000848FCF7C5FC054B9C78074B1B78A34269
:10ADB800DAD1EBE7014B5C78E8E700BFCC3800203C
:10ADC800683800208C380020DD380020D838002072
:10ADD80002210078FFF7BCBF08B9FEF769BE002062
:10ADE80070470000044B1B6813F0010301D0FFF704
:10ADF8009FBE1846704700BFD038002038B5194BA1
:10AE08001860194B10F002040546196014D0174B4E
:10AE180017480E221A70012140F26662FCF76EF89C
:10AE2800044648B9FCF7BEF8044628B90146114A59
:10AE38001148FCF727FC0446EB0711D50120FEF763
:10AE480044FE6CB921460D4A0D48FCF71BFC04462C
:10AE580030B90C4A0C480121BDE83840FCF712BC57
:10AE6800204638BDD0380020D8380020CC38002003
:10AE7800D8300300D9AD0200E43003003DAD020034
:10AE8800E83003000DAB0200E030030048B9012AA6
:10AE980002D1012907D00246012905D00AD3022987
:10AEA80005D0072070470E22044B1A707047034BD9
:10AEB8005A707047014B9A70704700BFCC38002019
:10AEC80010B5044690B9FEF7FEFD800000F1A040E1
:10AED800D0F8003723F44033C0F80037D0F80037F3
:10AEE80043F44033C0F80037204610BD0624FBE782
:10AEF80008B5012202210020FFF7C8FF08B1072882
:10AF080010D1072202210120FFF7C0FF08B107284E
:10AF180008D100210A220846FFF7B8FF10B1072818
:10AF280008BF002008BD00000388102B10B502D010
:10AF3800112B1ED010BD1A4C2168B1B90122084648
:10AF4800FFF7A4FF08B1072824D107220221012016
:10AF5800FFF79CFF08B107281CD10422022100201A
:10AF6800FFF794FF08B1072814D123680133236041
:10AF7800E0E70B4A1368013B1360002BDAD1FFF7B7
:10AF8800B7FF0028D6D0074B1B68002BD2D0BDE8EE
:10AF980010401847034B1B68002BE6D09847E4E79E
:10AFA800E4380020E038002008B50020FFF788FFCB
:10AFB80008B1062806D10120FFF782FF10B1062844
:10AFC80008BF002008BD00000D4B10B518600C46E6
:10AFD80029B10120FFF700FF40B102232370094B7C
:10AFE8001B6853B9BDE81040FFF782BFFFF7F4FEB6
:10AFF80008B10B23F2E72070F1E7002010BD00BF75
:10B00800E0380020E438002033DF704776DF7047EF
:10B0180078DF70477ADF70477CDF70478FDF7047D3
:10B028000378022B02D14068FBF7D2BF012BFAD07C
:10B038007047FBF7CDBF00002DE9FF47DFF86C80B4
:10B04800DFF86C90DFF86CA006460F4615461C46E4
:10B05800082200210DEB020007F092FA02ABA01CB7
:10B0680018442A1B391907F062FA98F800300BB116
:10B078008DF808309AF80010B9F8003079B90093C3
:10B08800082202AB304606F0DAFC18B90134A4B243
:10B09800A542DDD20C9B1C8004B0BDE8F08702AA53
:10B0A8000821304606F02DFDEFE700BF816B002038
:10B0B800EE2B00206C6B002008B5FCF759F8FBF765
:10B0C8004BFB18B9BDE80840FEF74AB908BD0000B7
:10B0D80008B50C490C48FEF7D8F94FF6FE72C1B214
:10B0E8000A4805F014FE132807D8094BC340DB07AC
:10B0F80007D4BDE80840FBF76BBF43F20143984211
:10B10800F7D108BDFC6A00200C6B0020E86A00201B
:10B1180001810A0008B50020FFF764FE08B1FBF7BB
:10B1280057FFFFF741FF08B1FBF752FFFFF76CFF2E
:10B1380018B1BDE80840FBF74BBF08BD7FB506A9AD
:10B14800082341F8143D4FF6FF72034602A804F0A5
:10B15800D9F908B1FBF73CFF019902A804F07EF980
:10B1680008B1FBF735FF07B05DF804FB00B5B3B0D5
:10B1780008284CD8DFE800F04905171E2A36424E49
:10B1880067003A483A4B3B49C01AC008000440F0EF
:10B198000300FBF74DFC0520FFF724FE002836D0FE
:10B1A800FBF716FF33E03148314B3349C01AC0086A
:10B1B8000004ECE72E4B2D483049C01AC0080004A3
:10B1C80040F00300FBF734FC0220E5E7284B274852
:10B1D8002B49C01AC008000440F00300FBF728FC04
:10B1E8000420D9E72148224B2649C01AC008000488
:10B1F80040F00300FBF71CFC0320CDE71B481C4B69
:10B208002149C01AC0080004F2E7FFF783FF33B0F2
:10B218005DF804FB32AB0822029243F8BC2D02A968
:10B2280012AA04A804F002F908B1FBF7D1FE022023
:10B23800FFF784FF039B0093029A144812AB04A9FA
:10B2480001F097FDAAE712A9002004F00BFA0528DF
:10B25800DDD008B1FBF7BCFE0620FFF76FFF0DF14C
:10B2680059010A4801F075FD98E700BF68270300F7
:10B27800402703007633030080330300963303002E
:10B28800A8330300BA330300DB33030090680020BF
:10B29800F0B542F6E263184CE35C85B025464BB343
:10B2A800C0B142F6E0630C26E35C5E43A7190DF1DA
:10B2B8000E01A35D7A780091D7E90110FFF7BCFE73
:10B2C800132807D1BDF80E307A789A4202D3A355D5
:10B2D80005B0F0BD42F6E0610C226B5C02FB035244
:10B2E8000024546042F6E26201336B54AB5C013BCC
:10B2F800AB54EDE70520EBE79839002037B5048813
:10B30800212C054644D005D8102C0ED0112C27D05E
:10B3180003B030BD562C03D0572C41D03B2CF7D16D
:10B328001321A888FFF772FE15E01F4B1F4820491C
:10B33800C01AC008000440F00300FBF779FB07209F
:10B34800FFF750FD08B1FBF743FE1A4BA9881A48CE
:10B35800198003F0DDF90028DAD0FBF739FED7E7CA
:10B36800114B12481549C01AC008000440F00300E8
:10B37800FBF75EFB0020FFF78BFF0E4B4FF6FF72CB
:10B388001A800F4B002220461A70FFF72BFDE2E7C8
:10B3980002A9002321F8043D8088FFF73FFEDAE781
:10B3A8000120FFF775FFB3E7402703006827030074
:10B3B80034320300EE2B0020746B00203E32030071
:10B3C800346B00202DE9F0410578064645BB154C45
:10B3D800154BDFF85880E41AE408240444F001040B
:10B3E800B28A95420AD33369134413F8013C0D2BF2
:10B3F80016D10A20FEF728F91128F9E73369585DB4
:10B40800FEF722F9074648B11128F7D0024641460F
:10B418002046FBF711FB3846FBF7DAFD0135DFE77D
:10B42800BDE8F08168270300402703004B33030081
:10B43800F0B51A4D85B087B20DF10E03009304469E
:10B4480000233A4628460E46FFF7F6FD132818D182
:10B45800BDF80EC0674512D3114B42F6E1670C21C7
:10B46800DA5D51435818C0E90165447042F6E2605C
:10B4780003F801C0195C013201311954DA5505B0DD
:10B48800F0BD30F00802FAD01128F8D043F201429A
:10B498009042F4D0FBF79CFDF1E700BFF02B0020B1
:10B4A80098390020043810B50A283AD8DFE800F0A7
:10B4B8000A3939163939063939392000BDE81040BA
:10B4C800FFF728BE174B13211888FFF79FFD30F0B0
:10B4D800080326D0BDE81040FBF77ABD114B1A8847
:10B4E8004FF6FF739A421CD10F4801F055FCEEE766
:10B4F8000C4B1A884FF6FF739A4212D00B4C01205E
:10B508002168FFF795FF2368094A01332360137800
:10B518000133DBB2062B137001BF064B23600023F7
:10B52800137010BDEE2B002090680020AC2D002079
:10B538008B6C0020A42D00201FB50B78052B35D06F
:10B54800062B38D0042B34D18B79022B31D1CB790F
:10B558007BBB0DF10F020192244A25481288009204
:10B568001946012206F010FB08B1FBF731FD214C0A
:10B578009DF80F30227803F00203FAB9CBB11E4BC5
:10B588001E481F49C01AC008000440F00300FBF71A
:10B598004FFA1020FFF726FC08B1FBF719FD1949EF
:10B5A8000620FFF745FF0123237002E0164B012216
:10B5B8001A7004B010BD144B0022F9E7002BF8D123
:10B5C8000D4B0E481149C01AC008000440F0030092
:10B5D800FBF72EFA1120FFF705FC08B1FBF7F8FC82
:10B5E8000B490620FFF724FF0023DDE7EE2B0020A0
:10B5F800F02B0020346B002040270300682703004D
:10B60800FC330300E82B00206C6B0020143403008B
:10B61800E22B00207FB506A9082341F8143D4FF618
:10B62800FF72012302A803F06DFF08B1FBF7D0FCFD
:10B638000B4B0C48019A0C49C01AC008000440F092
:10B64800030008230132FBF701FA019902A803F06D
:10B65800E3FE08B1FBF7BCFC07B05DF804FB00BFD4
:10B6680040270300682703007034030008B5FFF77C
:10B67800D1FF0321044801F028FA18B1BDE80840B9
:10B68800FBF7A6BC08BD00BF9068002010B50446B3
:10B6980004F03EFC204604F061FA2378082B05D01C
:10B6A8000C2B17D1BDE81040FFF7E0BF237CDB0768
:10B6B80010D5237A072B0DD1074B08480849C01A23
:10B6C800C008000440F00300FBF7B2F9BDE81040E1
:10B6D800FFF7A0BF10BD00BF402703006827030085
:10B6E8002D340300FBF774BCFBF772BCFBF770BC8E
:10B6F80038B5054D044645F001054FF47A40A84792
:10B70800013CFAD138BD00BF50320300154B1A78FE
:10B71800154B03EB82131B5CE02B13D0E12B13D0EA
:10B72800E22B13D0E32B13D0E42B13D0E52B13D04B
:10B73800E62B13D0E72B13D0E82B0CBF4FF4807007
:10B74800002070470120704702207047042070478E
:10B75800082070471020704720207047402070470D
:10B7680080207047806B0020DD2A002030B5CD078F
:10B778009DF80C4006D44025C5701D78032D04BFE4
:10B7880004251D708D0706D4402585701D78022D6F
:10B7980004BF04251D704D0706D4402545701D784B
:10B7A800012D04BF04251D7009070FD44021017025
:10B7B800197831BB0421402A19700ED0017840292C
:10B7C8000DD1027000221A70322406E0402AF5D109
:10B7D8001B78032B01D8013CE4B2204630BD4178E8
:10B7E800402902D142700122EDE78178402902D137
:10B7F80082700222E7E7C1784029E5D1C2700322AE
:10B80800E1E7402AE4D0DCE72DE9F04F334985B081
:10B818004FF00109002641EA09038346354601969F
:10B8280034464FF040084FF0A04A03932C4BF15C8C
:10B83800039B09FA01F1CAF808154FF4C850984754
:10B84800F100CBB202930027264BDAF81015F85C0A
:10B85800C140CB070ED5029BD919C9B20846FFF7DC
:10B8680055FF28B99BF800C08C4518D145F008054C
:10B878000443A4B20137082FE6D1194B995D01366C
:10B8880009FA01F1082ECAF80C15CFD1019B13BB98
:10B89800200200EB0560404405B0BDE8F08F9BF83E
:10B8A80001C08C4502D145F00405E1E79BF802C0D0
:10B8B8008C4502D145F00205DAE79BF803C08C45B8
:10B8C80002D145F00105D3E7B8F1400F16BF0123B7
:10B8D80088460193CCE74020DEE700BF50320300E2
:10B8E800CC2A0020D42A00202DE9F043364B374FCC
:10B8F800374DDFF8F890DFF8F88087B0ED1A3B781D
:10B908000393ED0899F8003002932D0498F800305D
:10B9180045F00305CDE900230C460B4602462D49A8
:10B9280006462846FBF7B6F82B4897F800E0E3B23E
:10B938000370CC464146BEF1000F01D084F48074F8
:10B94800264A1278C4F300241444254AE4B202EBD0
:10B958008414A25D392A06D10B7883F001030B7099
:10B9680007B0BDE8F083472A05D11E4A137883F053
:10B9780001031370F4E7532A06D19CF8003083F0D2
:10B9880001038CF80030EBE7E92A04D18EF0010EB0
:10B9980087F800E0E4E7097851B1111F192907D8A1
:10B9A80013F0220F0CBF43F0220323F0220303708D
:10B9B80006A9012001F8042DFFF73AFD0A49284697
:10B9C800FBF736F8CCE700BF402703008468002067
:10B9D80068270300F4320300816B0020806B00208D
:10B9E800DD2A00208A6C002041330300AA2D0020A4
:10B9F800DC2A00202DE9F047CCB001AF9122214983
:10BA0800214CDFF890A0DFF88890DFF88C8038466A
:10BA180006F08DFD9B2200210DF1950006F0B0FD8A
:10BA28001A4BE41AE408240444F0030400257E5D5C
:10BA38005E2E1ED0324651462046FAF7FDFF0A20F8
:10BA4800FFF756FE4946304600F014FB69468DF86C
:10BA580000000120FFF7ECFC41462046FAF7E8FF1A
:10BA68000135FFF729FB0A20FFF742FEB5F5967F5F
:10BA7800DDD16420FFF73CFE054B00221A704CB064
:10BA8800BDE8F087EC300300682703004027030077
:10BA9800816B002061340300413303002DE9F04F2E
:10BAA800BB4D0FCDB5B009AC0FC495E80300B94B39
:10BAB800B94A059384E803004FF4807305ACCDE9D7
:10BAC80007230693B54A0723214609A8FDF764FD15
