:020000022000DC
:10600000000001200162020061620200636202007E
:10601000656202006762020069620200000000001F
:106020000000000000000000000000006B620200A1
:106030006D620200000000006F62020071620200E7
:1060400009E102007362020045E50200736202008A
:106050007362020073620200C9E30200736202000D
:1060600073620200736202007362020073620200D4
:1060700073620200736202007362020073620200C4
:1060800073620200B5740200736202007362020060
:10609000717502007362020001E002007362020087
:1060A0007362020073620200736202007362020094
:1060B0007362020073620200000000000000000032
:1060C0007362020073620200736202007362020074
:1060D000736202007362020073620200000000003B
:1060E00000000000000000000000000000000000B0
:1060F00000000000000000000000000000000000A0
:10610000000000000000000000000000000000008F
:10611000000000000000000000000000000000007F
:10612000000000000000000000000000000000006F
:10613000000000000000000000000000000000005F
:10614000000000000000000000000000000000004F
:10615000000000000000000000000000000000003F
:10616000000000000000000000000000000000002F
:10617000000000000000000000000000000000001F
:10618000000000000000000000000000000000000F
:1061900000000000000000000000000000000000FF
:1061A00000000000000000000000000000000000EF
:1061B00000000000000000000000000000000000DF
:1061C00000000000000000000000000000000000CF
:1061D00000000000000000000000000000000000BF
:1061E00000000000000000000000000000000000AF
:1061F000000000000000000000000000000000009F
:106200001048804710484FF00701884385460F48E3
:1062100080470F48016841F470010160BFF34F8F60
:10622000BFF36F8F00F028B80A480B490B4A884229
:1062300007D0521A05D0037801300B700131013AB2
:10624000F9D1704775620200000001209914030023
:1062500088ED00E0C41B0300182200202C2200203F
:10626000FEE7FEE7FEE7FEE7FEE7FEE7FEE7FEE706
:10627000FEE7FEE7704700BF364937480A1A02D0EA
:10628000072291438D46354935480A1A06D0072220
:10629000914381F30988022282F3148831483249FC
:1062A000324A00F045F832483249334A00F040F8AB
:1062B00032483349334A00F03BF833483349344AD3
:1062C00000F036F833483449344A00F031F83448A5
:1062D0003449354A00F02CF834483549354A00F045
:1062E00027F835483549002200F02DF83448354963
:1062F000002200F028F834483449091A082903DB41
:106300000022026004300160314A90471F48204952
:10631000884205D00268043003B4904703BCF7E715
:1063200000208646EC46002000212A4A9047FEE7DE
:10633000884207D0521A05D0037801300B70013122
:10634000013AF9D17047884202D002700130FAE771
:10635000704700000000012000E000200000012044
:1063600000000120204103002C2200207C2400207A
:10637000D8630200D8630200461A030020410300DC
:106380002C2200202C220020D81B0300D81B030045
:10639000D81B0300D81B0300D81B0300D81B030025
:1063A000D81B0300D81B03002041030070430300E7
:1063B0007C2400207C2400207C240020203A002023
:1063C000203A0020203A0020203A0020205A0020C5
:0863D00029620200C96A020003
:1063D80076DF704778DF70477ADF70477CDF704779
:1063E8008FDF704733DF704700F022BF08B50C49D4
:1063F8000C480BF008F84FF6FE72C1B20A4802F0DA
:1064080001F8132807D8094BC340DB0707D4BDE8B8
:10641800084000F00DBF43F201439842F7D108BD90
:10642800E8270020F8270020D427002001810A004F
:1064380008B5002003F0BAFD08B100F0F9FE03F03A
:1064480011FC08B100F0F4FEFFF7CCFF18B1BDE86D
:10645800084000F0EDBE08BD2DE9F043DFF8748078
:10646800DFF8749085B006460F4615461C4608228C
:1064780000210DEB02000BF05DFA02ABA01C2A1BF9
:10648800391918440BF02DFA012003F089FD28B1C1
:106498009DF8083043F002038DF8083099F8001091
:1064A800B8F8003079B90093082202AB304603F0FF
:1064B800CCF818B90134A4B2A542D8D20C9B1C80E0
:1064C80005B0BDE8F08302AA0821304603F01FF9A1
:1064D800EFE700BF3C220020582800207FB506A91E
:1064E800082341F8143D4FF6FF72034602A809F04D
:1064F800A1FD08B100F09CFE019902A809F046FD33
:1065080008B100F095FE07B05DF804FB00B5B3B024
:1065180008284CD8DFE800F04905171E2A36424EF5
:1065280067003A483A4B3B49C01AC008000440F09B
:10653800030007F0A9F8052003F038FD002836D03D
:1065480000F076FE33E03148314B3349C01AC008B9
:106558000004ECE72E4B2D483049C01AC00800044F
:1065680040F0030007F090F80220E5E7284B2748A1
:106578002B49C01AC008000440F0030007F084F853
:106588000420D9E72148224B2649C01AC008000434
:1065980040F0030007F078F80320CDE71B481C4BB8
:1065A8002149C01AC0080004F2E7FFF741FF33B0E1
:1065B8005DF804FB32AB0822029243F8BC2D02A915
:1065C80012AA04A809F0CAFC08B100F031FE0220A2
:1065D800FFF784FF039B0093029A144812AB04A9A7
:1065E80001F043FEAAE712A9002009F0D3FD05280F
:1065F800DDD008B100F01CFE0620FFF76FFF0DF19B
:1066080059010A4801F021FE98E700BF141B030056
:10661800EC1A03004B1C0300551C03006B1C030001
:106628007D1C03008F1C0300B01C03007C25002088
:10663800F0B51B4D95F83E3085B02C466BB3B8B11C
:1066480095F83C300C265E43AF190DF10E017A78AF
:106658000091AB5DD7E90110FFF7FEFE132807D1C3
:10666800BDF80E307A789A4202D3AB5505B0F0BD2A
:1066780094F83C300C2202FB0342002151600133A4
:1066880094F83E20DBB2013A052B84F83C3084F8BC
:106698003E20EBD184F83C10E8E70520E6E700BF90
:1066A8002C25002037B50488212C054644D005D870
:1066B800102C0ED0112C27D003B030BD562C03D08F
:1066C800572C41D03B2CF7D11321A888FFF780FE27
:1066D80015E01F4B1F482049C01AC008000440F0AD
:1066E800030006F0D1FF072003F060FC08B100F0BA
:1066F8009FFD1A4BA9881A48198005F031FE002819
:10670800DAD000F095FDD7E7114B12481549C01AA9
:10671800C008000440F0030006F0B6FF0020FFF7B1
:1067280087FF0E4B4FF6FF721A800F4B0022204650
:106738001A7003F03BFCE2E702A9002321F8043DAC
:106748008088FFF74DFEDAE70120FFF771FFB3E716
:10675800EC1A0300141B0300D81B03003C22002082
:106768005C280020E21B030020280020F0B51D4D06
:1067780085B087B20DF10E030093044600233A4614
:1067880028460E46FFF768FE13281FD1BDF80EC035
:10679800674519D3144B93F83E10062914D093F883
:1067A8003D200C2050430132D2B21F18052AC7E9F8
:1067B800016501F1010108BF002203F800C07C70E7
:1067C80083F83E1083F83D2005B0F0BD30F0080294
:1067D800FAD01128F8D043F201429042F4D000F0E8
:1067E80027FDF1E7402200202C250020043810B5B1
:1067F8000A283AD8DFE800F00A3939163939063953
:1068080039392000BDE81040FFF712BE174B13219D
:106818001888FFF7DDFD30F0080326D0BDE81040EA
:1068280000F006BD114B1A884FF6FF739A421CD12F
:106838000F4801F02DFDEEE70C4B1A884FF6FF7359
:106848009A4212D00B4C01202168FFF78FFF236872
:10685800094A0133236013780133DBB2062B137026
:1068680001BF064B23600023137010BD3C2200209B
:106878007C250020D823002070280020D023002069
:106888001FB50B78052B35D0062B38D0042B34D107
:106898008B79022B31D1CB797BBB0DF10F020192A1
:1068A800244A2548128800921946012202F072FFF4
:1068B80008B100F0BDFC214C9DF80F30227803F0A0
:1068C8000203FAB9CBB11E4B1E481F49C01AC008B3
:1068D800000440F0030006F0D7FE102003F066FB2A
:1068E80008B100F0A5FC19490620FFF73FFF012376
:1068F800237002E0164B01221A7004B010BD144B2D
:106908000022F9E7002BF8D10D4B0E481149C01AA7
:10691800C008000440F0030006F0B6FE112003F0A2
:1069280045FB08B100F084FC0B490620FFF71EFF69
:106938000023DDE73C220020402200202028002000
:10694800EC1A0300141B0300D11C0300362200209C
:1069580058280020E91C0300302200207FB506A932
:10696800082341F8143D4FF6FF72012302A809F0ED
:1069780061FB08B100F05CFC0B4B0C48019A0C4918
:10698800C01AC008000440F003000823013206F0D2
:1069980089FE019902A809F0D7FA08B100F048FC6D
:1069A80007B05DF804FB00BFEC1A0300141B0300DA
:1069B8004B1D030008B5FFF7D1FF0321044801F080
:1069C80000FB18B1BDE8084000F032BC08BD00BFAC
:1069D8007C25002010B5044609F0B2F9204608F0DD
:1069E800D5FF2378082B05D00C2B17D1BDE8104014
:1069F800FFF7E0BF237CDB0710D5237A072B0DD1E7
:106A0800074B08480849C01AC008000440F00300B2
:106A180006F03AFEBDE81040FFF7A0BF10BD00BF6A
:106A2800EC1A0300141B0300021D030000F000BC55
:106A380000F0FEBB00F0FCBB2DE9F0411C4E0D251B
:106A480006244FF0A04746F001064FF0010808FA67
:106A580005F84FF42070C7F80885B047D7F8103507
:106A68001A0544BF05F1730464004FF4207048BF51
:106A7800E4B2B047D7F81035DB0444BF6C00193CCA
:106A88004FF4207005F1010548BFE4B2B047102D5E
:106A9800C7F80C85D9D10748074B0849C01AC00860
:106AA8000004224640F00300BDE8F04106F0F0BDC6
:106AB800F01B0300141B0300EC1A0300361D03002F
:106AC80080B54FF40041AEB0002006F017FC08B1C5
:106AD80000F0AEFB06F03EFB00F09CFE08B100F0B3
:106AE800A7FBC04AC048012100F0C4FE08B100F06D
:106AF8009FFB4FF0A04303200422C3F82C27BB4977
:106B0800C3F83027C3F83407C3F83807C3F83C077D
:106B180003F058FA08B100F08BFB03A9002003F03A
:106B2800B1F808B100F084FB9DF80C5006F0DEFFC8
:106B380008B100F07DFB07F0C7F908B100F078FB59
:106B4800002303A90120039307F044F808B100F0DB
:106B58006FFB03A807F0F0F808B100F069FBA44A3E
:106B68000A21082000F072FB08B100F061FB2EAC8E
:106B7800112304F8B43D9F480AF031FF9D4982B2C1
:106B88002046FFF72BFC08B100F052FB40F2C13061
:106B9800FFF720FC08B100F04BFB0822002103A8F6
:106BA8000AF0C8FE944B039303A803F598130493C3
:106BB800FFF712FC08B100F03BFB00218F4805F0FD
:106BC800BDFA08B100F034FBAC22002103A80AF09A
:106BD800B1FE022306228DF80C308DF80F20012318
:106BE800874A8DF80E304FF44860ADF81C30089293
:106BF8008DF8853000228DF886308DF888308DF834
:106C0800893044F250632821CDE927038DF8872085
:106C18007C4B2C93CDE9232240F6B832CDE92512DE
:106C2800794B7A482D9303A901F04CF908B100F08B
:106C3800FFFA0121754801F042F9754B7548039335
:106C480003A905F07BFB08B100F0F2FA41F6151331
:106C5800ADF806304EF6EE630226ADF80830402255
:106C68000123002103A8ADF80A308DF804600AF06A
:106C780061FE03A8684902F029FE03A811948DF863
:106C8800486001F0E1FE08B100F0D2FA10220021BC
:106C980003A80AF04FFE00230393059364230122FF
:106CA8008DF8183003A902235C488DF810208DF860
:106CB80019308DF81A308DF81B3001F032FB08B10D
:106CC80000F0B6FA564EDFF88081564F08220021B0
:106CD80030460AF02FFE0822002140460AF02AFE1C
:106CE8000822002138460AF025FE082333804FF495
:106CF800807373804FF400730224A8F802304FF4B5
:106D080040734FF001097B8048220021B4717471EF
:106D180034713C803C717C7103A8A8F8009088F815
:106D2800054088F804400AF005FE3F4B03934C22C7
:106D38003E4BADF830203E4A04930B9200233D4A67
:106D48003D488DF8149003A98DF815308DF81690EC
:106D580006968DF81C90CDF820808DF824900A971F
:106D68000F928DF8423011938DF838408DF84040DD
:106D78008DF850408DF84E408DF851408DF85240B6
:106D88008DF848408DF849408DF84A4002F04AFA9B
:106D980008B100F04DFA2949294851226423C1E974
:106DA800002301238B600B730AF006FB1C220021D1
:106DB80003A80AF0BFFD00244FF42033CDE90343B4
:106DC8004FF47023059303238DF8183003A81D4B47
:106DD800ADF81A408DF81C400894099301F07CFC2A
:106DE80034E000BFF5630200F81B0300F5670200FA
:106DF8007C240020FC1B0300060018002428002027
:106E08002C22002015650200396A02007C2500202A
:106E18003D6A02005C2800200C1C0300D4270020D7
:106E2800742500206C25002089680200F1630200A7
:106E3800DC2300200101000340220020E827002075
:106E4800F8270020356A02006828002008B100F001
:106E5800EFF9344B9C8783F83E405C601C61DC6131
:106E68009C625C6308F0BEFF08B100F0E1F90522FE
:106E7800002103A80AF05EFD9DF80C3043F00103E1
:106E8800032203F0F10362F306136FF3C7138DF8BF
:106E98000C3007238DF80D3010238DF80E309DF837
:106EA8000F3013438DF80F309DF8103003A81343AB
:106EB8008DF8103009F030F808B100F0B9F91A4827
:106EC80009F012F808B100F0B3F9184B184C194939
:106ED800E41AE408240444F00304204606F0D4FB32
:106EE80000224FF48031144800F0D6FC08B100F0BD
:106EF8009FF9022D12D11149204606F0C5FB09F071
:106F08005FF908B100F094F900F02AFA06F050FA97
:106F180008B906F001FEFFF78FFDF5E7FFF74AFD18
:106F2800F2E700BF2C250020DD690200EC1A0300FF
:106F3800141B0300201C0300002800203E1C030033
:106F48002DE9F04F3B4F89B000263B4B1B78F5B23B
:106F5800AB4202D809B0BDE8F08F384B196811F878
:106F680035000124A0F12002C0F1200304FA02F93F
:106F780024FA03F349EA0309D7E9002304FA00F8DD
:106F8800CDE9042302EA080203EA0903134301EBEB
:106F9800C50B4CD0DDE9042322EA080223EA0903E1
:106FA800C7E90023079107F001FA0799844611F809
:106FB8003500A0F12002C0F1200324FA03F304FAFB
:106FC80002F21A4304FA00F300931D4B0192DDE923
:106FD8000045D3E9002314401D4022462B465FFAA2
:106FE8008CF40025CDE90445049CA0F12005AC40B3
:106FF8000394049CC0F1200124FA01F1039C0C4382
:107008000499039481400291DDE90245AB4208BF2F
:10701800A2420CD19BF801104B1E59425941A1EBD9
:107028000C02DBF804305142514103B19847013654
:107038008BE700BFA028002071280020A828002086
:10704800982800202DE9F84F0646244800F068FCEF
:10705800002841D10123A6F12001C6F1200203FA3C
:1070680001FB23FA02F203FA06FA1D4BD3E90001E9
:107078004BEA020B00EA0A0801EA0B0958EA09027E
:107088001F4623D1304607F091F9164BB8B1D3E922
:10709800000140EA0A0441EA0B05C3E90045D7E9C3
:1070A80000234BEA0305104B0C4819684AEA02040E
:1070B800C7E900450022BDE8F84F00F0EDBBD3E971
:1070C800000120EA0A0421EA0B05E6E720EA0A049F
:1070D80021EA0B05C3E90045BDE8F88F78280020B0
:1070E800A02800209828002074280020042A2DE9D0
:1070F800F34105460C4616463AD907F08FF8D8B141
:107108001C4B1D491D601D4BDFF884801C701C4BF7
:1071180000221E600023C1E900231A49C1E90023A7
:10712800013CE4B200260327FF2C0CD1164A17486D
:10713800002100F09FFB03E007F038F80028DFD0BB
:1071480002B0BDE8F08123B205EBC30201A9927831
:107158008DF8052015F833008DF8066042468DF845
:10716800047007F065F8013CE4B20028DCD0E7E7DA
:107178000720E5E7A828002098280020712800208B
:1071880074280020A0280020496F0200781D030001
:107198004D70020070B5084D084E00242B789C42B3
:1071A80001D3002070BD3368012113F8340007F0C3
:1071B800B7F80134F2E700BF71280020A8280020A2
:1071C80010B572B606F0B4FA06F0F2F80028FBD152
:1071D800104B114C1149E41AE408240444F001004E
:1071E80006F052FA0E4B1B68DB0700D500BE0D49AE
:1071F80044F0020006F048FABFF34F8F0A490B4BE0
:10720800CA6802F4E0621343CB60BFF34F8F00BF3C
:10721800FDE700BFEC1A0300141B03007C1D0300EC
:10722800F0ED00E0881D030000ED00E00400FA0521
:107238001FB50021039001AA44F20100CDE9011114
:10724800FFF7BEFF05B05DF804FB000012F0030372
:1072580010B511D1094C22604C1CE400A4B22244A0
:10726800074C2260074A1370074A1370074A1080B8
:10727800074A1846118010BD0720FCE7B4280020F3
:10728800B0280020AC280020BC280020B828002006
:10729800BA2800202DE9F3472B4D2B888B42064650
:1072A8000C4617464BD302A84FF0000800F8018D92
:1072B80000F046FB254B264A18781178CBB22549B1
:1072C80009888B4238BF0133C0B238BF5FFA83F8F0
:1072D80040452ED092F800801378DBB2994286BFE1
:1072E8000133DBB2002313709DF8070000F04CFB5C
:1072F8004FF6FF73984524D0DFF860A0DAF8003025
:107308004FEAC80903EB090243F83870A6B19CB1EB
:10731800114B28881B68224608FB003031460AF0CA
:10732800E0FADAF800304B4400209C8002B0BDE857
:10733800F0874FF6FF78D7E700209080F6E709201E
:10734800F4E70420F2E700BFB8280020BC2800209A
:10735800AC280020BA280020B0280020B42800203B
:10736800F8B5124C124D264622782B789A4200D155
:10737800F8BD23780F48104A078812680F48DBB217
:1073880019B202EBC10C006852F83120BCF80410A5
:1073980003FB070090470A4A23781288DBB29A4217
:1073A80086BF0133DBB200233370DDE7BC28002041
:1073B800AC280020B8280020B4280020B0280020DD
:1073C800BA280020094A537891780133DBB29942F0
:1073D80008BF0023117899421FBF03705078182303
:1073E80003FB002014BF043000207047C028002091
:1073F800082910B5044602D00020FFF719FFD4E988
:107408000030BDE81040184773B5054602A80024AF
:1074180000F8014D0E4600F093FA0DF10600FFF753
:10742800D1FF90B106700A4B9DF8062045605A704E
:107438009DF8070000F0A8FA24B9064B4FF4801213
:10744800C3F80021204602B070BD0424F0E700BF55
:10745800C028002000E100E0024B4FF43C6043F0FC
:1074680001031847A01D030038B50C4B0C4C4FF412
:107478000032C3F8802001254FF48033C4F8483324
:10748800C4F808336560FFF7E7FF064BA5600024E2
:107498001C60FFF7E1FF044B1C7038BD00E100E001
:1074A80000100140DC290020CD290020264B2DE9C1
:1074B800F3411B6825490025C1F84051C1F84451E2
:1074C800C1F84851C1F84C51C1F80051C1F80451F4
:1074D800002B34D0D1F804451D49DFF888800968AD
:1074E800641A24F07F442F461A68A24212D8A41ABC
:1074F80015441A7CDE6962B15A691F7400929B694F
:107508000193424608216846FFF7C4FE08B1FFF719
:107518008FFEBEB90F4B104A197813788B4205D1EC
:107528000133DBB2022B08BF0023137012780B4B18
:1075380043F822500A4B4FF48012C3F8002102B0DE
:10754800BDE8F0813346CFE7E02900200010014074
:10755800DC290020D8290020D9290020D0290020A2
:1075680000E100E0F97302002DE9F74F9E4A9F49B8
:10757800137809789E4D99423CD00133DBB2022B37
:1075880008BF002313709B4912789B4B0F6853F870
:1075980022003B1823F07F4300220B602B6816461D
:1075A8001446944613B942B12B6006E0196881422B
:1075B8000ED902B12B60091A19604FF001082B6827
:1075C800DFF83CA200930027BEB9DFF83CB260E0C8
:1075D800401A0C44D968C3F800C0D3F81CE031B194
:1075E8003A1922F07F42C3E90121DE611E460122D9
:1075F8007346D7E70026B046E1E73446F6697D4A88
:1076080063681268DFF804C2A068991A21F07F4104
:10761800614500F2A58001442160012222742A6894
:107628000023C4E90133E361002A40F0A2802C6002
:10763800CAE75A1C9BF80210D2B291428BF800207C
:1076480004BF00228BF80020182202FB03B32A682B
:1076580019799C68022974D003297ED0012918D190
:10766800217CB1B9DA6862601A69A2605A699B69BB
:10767800A361624BE2601B78002BC0D06160BEE75B
:107688009C4200F093809946DB69002BF8D10023D7
:1076980023749BF800309BF801209A42C9D12B68CB
:1076A8002FB9009A934202D1B8F1000F43D0002BB2
:1076B80079D0D3F800A0524D4E4BD5F804751C680C
:1076C800DFF84C813E1B98F8003026F07F460336E1
:1076D8009BB94FF48033C5F84433C5F80433494B9C
:1076E8004FF400324FF00109C3F880211A60C5F841
:1076F8000090FFF7B1FE88F80090B2452CBF5444C3
:10770800A41924F07F44C5F84045D5F80435DB1B9F
:1077180023F07F43E41B033324F07F44A3420AD9B8
:10772800D5F80435C5F84035FFF796FE354B4FF4CC
:107738000032C3F80021314B00221A7003B0BDE8B3
:10774800F08F13469146A0E71174D2690123002AED
:10775800FAD1002B9DD02A609BE700231946F6E753
:10776800D31A23F07F43834234BFC31A0023236014
:1077780053E721681368994213D8591A1160E261D6
:1077880055E7091AD8691A4638B103461868884275
:10779800F7D3401A1860184613462160E061DC618F
:1077A80012E71346F2E7FFF75FFEC4E74C450DD139
:1077B800D3692B6053B90F4801920121CAF8081008
:1077C80003600E4B1970FFF747FE019AE1692368C1
:1077D800C9F81C1011B1086803440B602B689A4261
:1077E80018BF012753E700BFD8290020D929002056
:1077F800E0290020DC290020D0290020CC29002005
:107808000010014000E100E0C0280020FEFF7F00DA
:10781800CD29002008B5FFF727FE104B00200B22CA
:1078280018809A700E4B18600E4B18700E4B18701B
:107838000E4B4FF48012C021C3F8802183F8141333
:107848001A6002F18042A2F56F22C2F8080583F897
:107858001113074BD2F804251A6008BDC028002070
:10786800E0290020D8290020D929002000E100E0E3
:10787800DC290020074B9B784BB132B128B1036853
:10788800187C20B959745A6170470720704708203E
:10789800704700BFC02800202DE9F7431D4FBB7873
:1078A80005460E4690469BB390B304292ED94369EA
:1078B80073B3437C02A80024012B00F8014D0CBFD0
:1078C8008946A14600F03CF80DF10600FFF77AFD65
:1078D800D0B101230370104B4560D3F80435C0E9DB
:1078E8000498C0E902369DF806307B709DF80700C1
:1078F80000F04AF824B9094B4FF48012C3F800216C
:10790800204603B0BDE8F0830424EFE70724F7E737
:107918000824F5E7C02800200010014000E100E03D
:10792800064A92783AB130B1426922B10022027413
:107938000221FFF769BD0820704700BFC02800205A
:1079480070B5EFF3108672B60C4A946801239CB99F
:1079580093600B4B0B4DD3F8801029401160C3F88E
:107968008050D3F8841051604FF0FF32C3F8842060
:10797800047006B962B670BD0370FAE7E429002006
:1079880000E100E0FC06FFBD084B9A6810B55AB14B
:1079980050B9EFF3108172B6054A1C6814605C6830
:1079A8005460986001B962B610BD00BFE429002098
:1079B80000E100E06DDF704779DF70477DDF7047D9
:1079C80064DF70472DE9F74F0C9CBDF834B0278869
:1079D800002580468A4691462E46B8F80020B242D5
:1079E8000BDC35B12288013AD21B92B2FF2A39D872
:1079F800DA55002003B0BDE8F08FD8F8042052F81B
:107A08002600019000220DF1030101A8FFF7D8FF1D
:107A18000028EFD19DF803204A4521D12288002D66
:107A280014BF0020022002EB09010144594519DC6A
:107A38003DB9013292B2228003F802A022880132B5
:107A4800228022880DF103011A4401A8FFF7B8FF2C
:107A58000028CFD121889DF803200A4422800125DF
:107A68000136BAE70C20C5E72DE9F341089CBDF8BB
:107A780024501746CDE9004502220646FFF7A2FF2B
:107A880048B9102239463046CDE9084502B0BDE86C
:107A9800F041FFF797BF02B0BDE8F0812DE9F04F44
:107AA80000231688138090F82D3085B007460D46C0
:107AB800144653B3082E01D80C2026E102A8FFF77C
:107AC80079FF002840F0218113880822CA542388AE
:107AD80001339BB21B222380CA542088013080B214
:107AE800208006220DF10901284409F0FAFE2388B6
:107AF8009DF8082006339BB212F0FE0218BF01223F
:107B08002380EA54238801332380BB78FBB1238880
:107B18000433B342D0D802A8FFF74EFF002840F044
:107B2800F48023880322EA54238801339BB2192264
:107B38002380EA542388BDF8082001339BB2E91852
:107B48002380EA54120A4A70238802332380FA7881
:107B58009AB12388D91CB142AED80221E9542388AE
:107B680001339BB201212380E95423880B449BB243
:107B78002380EA5423880B4423807A68AAB1238897
:107B8800D91CB14298D8022192F90020E9542388DF
:107B980001339BB20A212380E954238801339BB225
:107BA8002380EA542388013323803B89002B40F04B
:107BB800A0803B8A5BB1CDE900462B460722032112
:107BC80007F11000FFF750FF002840F09E803B8B24
:107BD8005BB1CDE900462B461522142107F11800A8
:107BE800FFF742FF002840F090803A6A002A40F0F0
:107BF8008F80D7F82480B8F1000F30D0B8F804305F
:107C08002188981C8A1C0244B2423FF655AFFE28D0
:107C18003FF652AF03336B54238801339BB2FF22E4
:107C28002380EA54238801339BB22380B8F80020CC
:107C3800EA54E918120A4A702088023080B220807B
:107C4800B8F804205AB1D8F8081000296AD0284496
:107C580009F047FE2388B8F804201344238097F8D6
:107C68002C30002B40F09980387800284DD03B8884
:107C7800012B57D021888A1CB2423FF61DAF01283C
:107C880005D17B7802330B449E42FFF415AF023EC8
:107C9800761A04A9B6B221F8086DA818FFF78EFE67
:107CA80098BB3978BDF80820022900F0BB807B78A2
:107CB800934202D3B24240F2B380012940F0B4802B
:107CC8009BB29E42C0F0B080ADF808300821BDF8E4
:107CD8000830FE2B3FF6F0AE22880133AB542288E1
:107CE800013292B22280A9542288134423800020B2
:107CF8000BE0CDE900462B460622022107F10800D9
:107D0800FFF7B2FE00283FF454AF05B0BDE8F08F8E
:107D1800B4F800C00CF10603B3423FF6CDAE1188AB
:107D2800052901D80720F0E76FF4486E01EB0E0330
:107D38009BB24FF27D3E7345F4D95388052BF1D998
:107D48006FF44860181880B27045EBD94FF6FF7091
:107D5800814203D0834201D09942E3D8052305F834
:107D68000C30238801339BB212212380E9542388E5
:107D780001339BB223801188E954E818090A41703D
:107D8800238802339BB223805288EA54E918120AE6
:107D98004A702388023323802BE7BB6A002BC1D0AB
:107DA8004FF000094FF00C0A4FF0160B97F82C30E3
:107DB8005FFA89F293427FF657AFB96A0AFB02F27B
:107DC80001EB0208B8F80430981CFE283FF674AEA0
:107DD800208803332B54238801339BB2238005F872
:107DE80003B0238801339BB223808A5AEA54E918E6
:107DF800120A4A702088023080B22080B8F8042025
:107E08005AB1D8F8081000298CD0284409F069FD27
:107E18002388B8F804201344238009F10109C5E731
:107E2800092154E7B242FBD9ADF808604EE770B5B6
:107E3800C0B14AB116880024B44203D305196D783D
:107E48009D4208D0A14201D800200BE0055D013514
:107E58002C44A4B2F0E7A142F6D9A31C1380005D1C
:107E6800013880B270BD37B502AC002324F8023D5A
:107E7800134622460546FFF7DAFF10B1BDF80600A3
:107E8800284403B030BD72DF704773DF704774DF7A
:107E9800704738B5012204460D46B0F83812D0F8BC
:107EA8003402FFF7E0FF00B1057004F13C0204F56D
:107EB8000D7104F15400BDE83840FFF7E4BF80F8C5
:107EC80030107047F8B504460F46002975D00028D1
:107ED80073D091F87A301BB191F89830002B6ED19D
:107EE800D7F8A030042B6AD0D7F89C30042B66D082
:107EF80007F178060FCE4FF0000C251D84F802C05C
:107F08000FC50FCE0FC596E8070085E8070084F86F
:107F180030C0D7F8A4306363D7F8A830A3634FF60E
:107F2800FF7504F50D73C4F84432A4F848520722CB
:107F3800614604F24A2009F0FDFC23780BB984F865
:107F4800545094F8243004F15501C4F8341283B322
:107F5800EE23A4F8383204F50E723846FFF79EFD7A
:107F680030BB94F8243004F2431107F13C00C4F804
:107F78003C1203B3EE23A4F8403204F51072FFF765
:107F88008DFDA8B9A269A4F848200123626920647C
:107F980084F850006264014684F8513084F83C301B
:107FA80004F13C0204F15400FFF76DFF00B923709F
:107FB800F8BD1F23CDE71F23DDE70E20F8E70720D4
:107FC800F6E7F8B5077804460D46002F00F005815E
:107FD80000F24A26A17007220021304609F0AAFCC7
:107FE800E38813B1A378012B04D0E3794BB1A378CC
:107FF800022B06D1636BA3B1012284F85122082019
:108008009847334604F5147113F8012F12B99942B1
:10801800FAD117466B1E032B53D8DFE803F0050B84
:108028000F1284F85132ECE7A3791BB194F824308D
:1080380003B95FB9E3790BB1002F44D1237A002B40
:1080480043D1637A002B0CBF00250425636BA57010
:10805800002B3CD0033D012D39D86279002A36D057
:1080680094F85222002A32D184F85422012284F84A
:1080780053220720984704F13C051822002128467E
:1080880009F058FCE36A94F824200121581E88421C
:1080980088BF0B4684F83C1084F8513032B18842CE
:1080A80096BFA36A84F8521084F85230A17800234E
:1080B80084F8503004291BD8DFE801F0770D223509
:1080C80059000025C2E70225C0E70325BEE70023C3
:1080D80084F85332CFE7C4F84432C4E9106302236A
:1080E800012284F83C30802384F83120A4F84830F9
:1080F800A378002B5CD1636B002B6AD1002067E06A
:10810800022384F8313062B1072384F83C302369B4
:10811800A4F848300023C4F84432E3682664636452
:10812800E6E70323F1E763696364A369A4F84830C9
:1081380012B1062384F83C306379B3B194F8523213
:108148009BB994F8543283B1022384F85030042147
:108158002046FFF79EFE0028CAD1052384F8313057
:1081680004F50D73C4F84432C2E70323F6E7E36964
:108178006364236AA4F8483012B1062384F83C30BB
:10818800637983B194F852326BB994F8543253B18D
:10819800022384F8503004212046FFF77AFE002895
:1081A800A6D10623DAE70423D8E784F831309FE71D
:1081B8002A46D4F8441204F15400FFF764FE38B993
:1081C80094F8301094F85400FFF75FFE002892D01E
:1081D800F8BD94F83100984790E70820F8E703883D
:1081E800112B10B50C460AD0262B1FD0102B05D109
:1081F800C37B012B02D18388A1F8483210BD00222D
:10820800838881F85222B1F848229A42F6D10B7934
:10821800002BF3D101212046FFF7D3FE0028EDD033
:10822800A36B002BEAD0BDE810401847037A013B46
:10823800012BE3D889780523013191FBF3F303EB94
:108248008303C91AC9B2E6E7704790F8513210B5EE
:108258004BB1002480F85142072200F24A2009F06D
:1082680040FB204610BD0820FCE790F853326BB164
:10827800002380F853323AB9009B003318BF01231A
:1082880080F85432002070470123F9E7082070472E
:1082980038B5044690F85400FFF7F9FD012384F837
:1082A8005232002384F8543284F850300621204694
:1082B800FFF7EFFD054638B9A1782046FFF781FEA4
:1082C80010B1A36B03B19847284638BDA8DF7047A3
:1082D800ACDF7047AEDF704737B505460C46E1B1F5
:1082E800D8B10388502B18D14B7CB3B1C2884B89C5
:1082F8009A4212D1038A022B0FD10B686BB112304C
:1083080001F0DAFA58B100238DF80430AB88ADF8E3
:10831800063001A923682046984703B030BD0123E1
:10832800F2E72DE9F0410E4690B00446002867D0E8
:10833800002965D00B6803600B79437410A9FF23EB
:10834800037441F60F03012021F8383D221D8DF8F2
:108358000A00FFF7BBFF054600284BD12022337BDC
:108368008DF8033001460DEB020009F0E3FA42F6FE
:108378001923ADF820304FF0011309930DF10303D1
:10838800627C0A939DF82D30A08862F30413DBB257
:1083980043F002038DF82D30B37B8DF83330A21DE6
:1083A800737B8DF8313008A901F099FA054608BBAE
:1083B800B16819B30DF10408404601F081FA294665
:1083C8000746142203A809F0B5FAB8B242F6081312
:1083D800ADF80C30ADF81600F37BADF81A0004F1D7
:1083E8000E0203A9E0888DF81230CDF81C8001F048
:1083F80019FB0546284610B0BDE8F081E081F9E791
:108408000E25F7E72DE9F04194B017468DF80710CF
:108418000546002858D0027CCBB29A4256D003AE0B
:1084280008220021304609F085FA4FF001080DF1C5
:1084380007033246E988CDF80C804FF6FF700493A5
:10844800FFF746FF044608BB9DF807302B746B7C8A
:10845800002B3DD00146102205A809F06BFAEB88E5
:10846800ADF81430BDF80E30ADF81830049B089301
:108478004FF6FE739F428DF8168007961ED109A805
:1084880000F048FA2546099B9D4203D3204614B0C4
:10849800BDE8F08109AB03EB45039E88304600F048
:1084A8000DFA022805D105A9304624B9FFF712FFB5
:1084B80004460135E7E7FFF70DFFFAE705A9384657
:1084C800FFF708FF0446E1E70E24DFE70024DDE7B5
:1084D8000824DBE775DF704776DF70477ADF70477F
:1084E8007BDF7047034B1A8882420CBF1846002076
:1084F800704700BF0C2A0020024B9B6903B1184744
:10850800704700BFF029002037B585B22846FFF72D
:10851800E9FF034670B1164C017A227B91420BD2D7
:1085280000F10A012846FFF7D5FFE8B1112801D06C
:10853800FFF7E2FF03B030BD237C0022027243B193
:108548003B212846FFF7C8FF30F0080301D0FFF7AA
:10855800D3FF6369002BEDD000228DF80420ADF81D
:10856800065001A89847E5E71A7A01321A72E1E73E
:10857800F029002013B50B46497A0F4C024669B919
:10858800D4E901101C7A002C18BF01465868FFF77F
:1085980083F908B1FFF7B0FF02B010BD00211972CE
:1085A8006369002BF8D00121ADF806008DF804109E
:1085B80001A89847F0E700BFF02900208388B3F5A9
:1085C800FA7F28BF6FF4F97230B528BF9C18058868
:1085D8004A8838BF002495420CD84088904209D375
:1085E8008A88A24206D303F2F310904234BF0020D7
:1085F800012030BD0020FCE70388112B70B501462F
:1086080048D002D8102B1ED070BD122B52D0502B40
:10861800FAD12F4BC288DB899A42F5D1038A022B03
:10862800F2D186883046FFF75DFF05460028EBD07B
:1086380001F1120001F040F930BB6868FFF770F9EA
:108648000028E1D009E0C37B012BDDD14FF6FF7094
:10865800FFF748FF054620B90420BDE87040FFF742
:108668004BBF1C4A8E880680002303721368C5F826
:108678000A300A30536843601031FFF79FFF144BEC
:108688006872DB89002BBFD129463046BDE87040AF
:10869800FFF770BF8088FFF725FF04460028B3D096
:1086A8004068FFF73DF908B1FFF726FF4FF6FF7363
:1086B8002380A9E786883046FFF714FF054600287F
:1086C800A2D008310A30FFF779FF6872DCE700BFF3
:1086D800F0290020202A0020F8B5064650B30546A8
:1086E8000FCD154F3C460FC495E8070084E80700F6
:1086F8003068124B3B60B8B1FFF7F0FEC8B931687B
:108708000A681A604A685A600D480E4A4FF6FF73A5
:1087180003800D4B40F8043F0021FFF7ABF8002819
:1087280014BF0320002004E01846FFF7D9FE0028F4
:10873800EAD0F8BD0E20FCE7F0290020202A00200E
:108748000C2A002011850200282A0020F7B51746B8
:1087580001900E4691B1019C6CB100252C4629462A
:1087680001A803F0BEFB18B13946A8B2B0470134DE
:108778000135142DF3D1204603B0F0BD0C46FAE7BD
:1087880073B50191019C06466CB100252C4629461B
:1087980001A803F0A6FB18B106EB440301349D8041
:1087A8000135142DF3D13046346002B070BD00009D
:1087B8002DE9F04303888488112B8DB0064640D0FC
:1087C8001A2B43D0102B16D1294DAB680CA8DB43CC
:1087D80040F8303D55F8041F03F0E4FB009901A868
:1087E800FFF7CEFF0027019B9F4207D3132C18D910
:1087F8000420FEF71DFD0DB0BDE8F08301AB03EBCF
:1088080047034FF00008B3F8049005EB0800494609
:1088180008F1040803F05BFBB8F1740FF5D10137D8
:10882800E1E72146134803F03BFB2146124803F0D9
:1088380037FBF37B012BDED01048214603F030FBD9
:10884800D9E70C48214603F042FBD4E7057A0C48E7
:108858002D09012D214606D903F022FB022D2146C0
:108868000848F0D0EAE703F032FB21460548EAE77A
:10887800482A0020502A00204C2A0020542A002090
:10888800582A00205C2A00201328014602D80248F2
:1088980003F027BB002070474C2A002010B504467F
:1088A800FFF7F2FF38B12146034803F01AFB00280E
:1088B80014BF0220012010BD542A002010B5044620
:1088C800FFF7E2FF38B12146034803F00AFB00280E
:1088D80014BF0220012010BD502A002010B5044604
:1088E800FFF7D2FF28B121460248BDE8104003F047
:1088F800F8BA10BD582A002010B50446FFF7C4FF87
:1089080028B121460248BDE8104003F0EABA10BD7C
:108918005C2A002010B5034B04465968FFF730FF66
:10892800204610BD482A002010B50446FFF7ACFFCA
:10893800002814BF2046142010BD000008B51821D7
:10894800024803F0D7FAC0B208BD00BF482A002089
:1089580070B50A4D064628460C4603F0C2FA58B1CF
:108968003046FFF791FF38B1A01D314605EB800076
:10897800BDE8704003F0B5BA002070BD482A002059
:10898800F8B50D4C054620460E46174603F0A9FAE1
:1089980080B12846FFF778FF60B1B01D04EB800076
:1089A80029461FB1BDE8F84003F07ABABDE8F8409F
:1089B80003F08DBAF8BD00BF482A0020F8B50A4C6C
:1089C80005460E4601462046174603F08AFA48B186
:1089D800043504EB85043A46A0683146BDE8F84002
:1089E800FFF7B4BEF8BD00BF482A0020A8DF7047D3
:1089F800F0B5074689B014461E460D4611B908461B
:108A0800FEF716FC14B92046FEF712FC20220021BE
:108A1800684608F08FFF9DF80D300E9AADF800708B
:108A280043F002038DF80D30064BADF8044069465B
:108A38001888ADF8064002958DF8116000F04FFFD8
:108A480009B0F0BDF82A002030B587B006A941F674
:108A58000A03044621F80C3D01205A4A8DF80E00FD
:108A6800FFF7C4FF0546002849D12288002A49D1CA
:108A7800228952B15449009194F83C30E16842F699
:108A88002420FFF7B5FF002847D1228A52B14F4969
:108A9800009194F83C30616942F62520FFF7A8FF61
:108AA80000283AD1228B52B14949009194F83C30C0
:108AB800E16942F62720FFF79BFF00282DD1228C81
:108AC8004AB14449009194F83C30616A42F6262044
:108AD800FFF78EFF08BB228D4AB13F49009194F8F9
:108AE8003C30E16A42F62820FFF782FFA8B9226BE2
:108AF800AAB9616B002937D1A36B002B41D1284655
:108B080007B030BD3549009194F83C30616842F6B1
:108B18002920FFF76DFF0028AAD00546EFE7D2E924
:108B28000031180A8DF810308DF81100180C1B0E42
:108B38008DF812008DF814108DF8133093688DF8A5
:108B480015301A0A8DF816201B0C254A8DF8173097
:108B5800009294F83C30082204A942F62320FFF73B
:108B680047FF0028C5D0D8E71E480A79009094F836
:108B78003C30096842F62A20FFF73AFF0028BBD0AC
:108B8800CBE71A788DF810205A888DF81120120A30
:108B98008DF812209A888DF81320120A8DF8142067
:108BA800DB888DF81530104A00921B0A8DF81630B4
:108BB800072294F83C3004A942F65020FFF718FF2A
:108BC800ABE700BFF82A0020D82A0020F02A0020AE
:108BD800C82A0020C02A0020FA2A0020D02A002013
:108BE800022B0020E82A0020E02A0020A8DF704796
:108BF800A9DF7047ACDF7047AEDF7047B0DF704762
:108C080064DF70472DE9F04315468BB0044688466B
:108C18006A46A988D0F878011F4600F00DFE10B109
:108C2800636803B19847009E8EB30021102201A803
:108C3800B5F80E9008F07EFE01238DF8043000236D
:108C4800ADF80830BDF84830A888ADF80C90A3EB13
:108C58000903ADF80E309DF80A304F443E4443F006
:108C6800010301A904968DF80A30FFF7C7FF10B178
:108C7800636803B1984723684BB107228DF8142025
:108C8800D8F800200692099505A9204698470BB008
:108C9800BDE8F0832DE9F04186B005460C4617463D
:108CA8008988D0F878016A46984600F0C5FD10B169
:108CB8006B6803B198470098F0B1228AE389BDF840
:108CC800301013448B4217DC04F11206314640443D
:108CD80008F007FE2B687BB104228DF804203A685F
:108CE8000292E289ADF80C20228AADF80E20CDE977
:108CF800046401A92846984706B0BDE8F081D0F879
:108D08007CC12DE9F0411324069E1C80BCF1000FA4
:108D180024D1D0F880C1BCF1000F3DD1D0F884C176
:108D2800BCF1000F52D1002016E01C8825441D809C
:108D3800857CFCB2A542ECD90EFB04050137B5F8D9
:108D480014803CF834508845EFD142F64D23012079
:108D580013809070D4703580BDE8F08100274FF003
:108D68000A0EE5E71C8825441D8090F87850FCB26F
:108D7800A542D3D90EFB04050137B5F87A803CF833
:108D880034504145EED142F64D23138002239370AF
:108D9800D47001203580DFE700274FF00A0EE4E7A2
:108DA8001C8825441D8090F8DE50FCB2A542BAD933
:108DB8000EFB04050137B5F8E0803CF83450414516
:108DC800EED142F64D2313800323E0E700274FF04E
:108DD8000A0EE8E7F0B5168A022E87B004460F4659
:108DE80015460FD103686BB102F1120000F064FD63
:108DF80050B18DF804603B6802930595236801A97A
:108E08002046984707B0F0BD03238DF80430F2E7F9
:108E18002DE9F0438FB0DDE91645074688469146AF
:108E28000021202206A81E4608F084FD42F64D23A4
:108E3800ADF8183098F800308DF8253023788DF883
:108E4800293063788DF82A30A3788DF82B302A469C
:108E5800012306A93888ADF81C908DF824308DF8C8
:108E6800273000F03CFDF8B91422014601A808F0AB
:108E780061FD42F60813ADF8043023788DF80A3006
:108E8800314663788DF80B30684600F019FD80B2E2
:108E9800ADF80E00ADF8120005F1080201A9288806
:108EA800CDF814D000F0BEFD0FB0BDE8F083F0B5EA
:108EB800144689B005460F462022002168461E4602
:108EC80008F038FD61789DF80D208DF81210082300
:108ED800ADF804300B1C18BF012342F0020263F303
:108EE800C302D2B223788DF8113042F01002A37871
:108EF8008DF80D208DF813303246012369462888F5
:108F0800ADF800708DF80F3000F0E9FC09B0F0BD45
:108F180030B587B004460D4601AA8988D0F8780193
:108F280000F08AFC10B1636803B19847019BFBB15C
:108F38001022002102A808F0FDFC01238DF808305A
:108F4800ADF81230019B05939DF80E30A8880022D9
:108F5800ADF80C2043F00103EA89ADF8102002A90E
:108F68008DF80E30FFF74AFE10B1636803B19847D9
:108F780007B030BDF0B50388502B8BB005460C46C2
:108F880058D0512B00F00481102B40D10AAA00239D
:108F9800818842F8183DD4F8780100F04DFC10B1F2
:108FA800636803B19847049888B3D4F87C11002902
:108FB80034D0A67C00231322B3422AD3D4F88011DC
:108FC80021B194F878600023B34229D3D4F88411EE
:108FD80021B194F8DE600023B34226D3002108F0C3
:108FE800A9FC63899BB1049B01261E7008220021FD
:108FF80005A808F09FFC049B6189A888059605AA26
:109008000693FFF7F7FD10B1636803B198470BB0FB
:10901800F0BD31F8337001333A44CDE71322CDE780
:1090280031F8337001333A44CEE731F83370013305
:109038003A44D1E7C188B4F86E010223002288427D
:10904800ADF80C30ADF80E201ED104AAA988D4F8CA
:10905800780100F0F1FB10B1636803B19847049AF6
:10906800002AD4D02B8A012BD1D1AB7C0BB1012B98
:10907800CDD18DF8143053702368002BC7D00995D3
:1090880005A920469847C2E7608988421AD104AAF0
:10909800A988D4F8780100F0CFFB10B1636803B158
:1090A8009847049A002AB2D02B8A012BAFD1AB7C07
:1090B8001BB1012BABD1062100E005218DF814105E
:1090C8001370D9E7B4F85201884209D10AA942F6C7
:1090D800222341F8143D2A462046FFF77BFE96E7F7
:1090E800B4F84E01884204D142F6222205920822A1
:1090F8000AE0B4F856318B420FD142F63223059379
:109108000A23ADF80C300122ADF80E200092294652
:1091180005AA2046FFF7BEFD79E7B4F862318B4215
:1091280003D10AA942F63323D3E7B4F85E318B4260
:1091380015D0A07C13460A26DAB2824216D30DF166
:109148000E03009305AA03AB2046FFF7D8FD0028BD
:109158003FF45DAFBDF80C30BDF80E20D6E742F6FF
:10916800332305930B23ADF80C30C0E7013306FB1E
:109178000347FF898F42DFD142F64D23ADF8143003
:1091880001238DF817208DF816302A4605A9A3E784
:109198000022ADF8102082790223012AADF80E30A2
:1091A8007FF435AF01896089884204D12946204679
:1091B800FFF7AEFE2BE7B4F84E01884204D142F621
:1091C80022220592082209E0B4F856318B420ED1CA
:1091D80042F6322305930A23ADF80E30ADF810207D
:1091E800009205A92A462046FFF70CFD0FE7B4F8C0
:1091F8005E318B4206D142F6332305930B23ADF83B
:109208000E30DFE704AB009305AA0DF10E032046EC
:10921800FFF775FD00283FF4FAAEBDF80E30BDF833
:109228001020DDE72DE9F04F0C4697B005460028E1
:1092380000F00982002900F00682897A0A2900F2E2
:109248008780227C0A2A00F28380237E0A2B7FD81B
:10925800206828606068A97416A985F8DE3005F1D1
:10926800080741F61203686085F87820012021F884
:10927800483D3A468DF81200FFF7B8FC002873D134
:10928800034694F83620D9B28A4263D8238943B377
:109298000126202200210EA894F83C9094F83D80E5
:1092A8008DF8246008F046FB42F64E23ADF83830BE
:1092B8004FF001130F9309AB10939DF8453028899F
:1092C8008DF8499043F0060305F10A020EA98DF8BE
:1092D80045308DF84A808DF8476000F000FB002883
:1092E80042D1A37A002B42D1237C002B79D1237E53
:1092F800002B40F0A680202200210EA808F01AFBBF
:1093080042F64B23ADF83830A38CADF83C30ADF8BD
:109318003E30236A10939DF84530288943F00203B4
:109328008DF8453094F82C308DF8493005F5A27247
:1093380001230EA98DF8443000F0D1FAA0B994F8B1
:109348002630002B00F0DE80A36A002B40F06B81F2
:10935800072009E0A06B0EAA30F811102889FFF742
:1093680047FC013300288CD017B0BDE8F08FE368C4
:10937800002BB9D04FF000084FF00A092BE0D4F8C1
:109388000CB00BEBC60A012200210EA808F0D2FA95
:109398009AF805309DF83820003318BF012342F0B1
:1093A800020263F3C302D2B242F010028DF83820F1
:1093B8003BF8362009FB06560AF1040314360093DD
:1093C80001960AF102030EA93846FFF721FD08F1BC
:1093D80001080028C8D1A37A5FFA88F6B342CED82C
:1093E80082E76369002B82D04FF000084FF00A092A
:1093F80021E0012200210EA8D4F814B008F09AFA4E
:109408009DF838303BF836200BEBC60A43F00E03C4
:1094180009FB06568DF838307A360AF104030093B2
:1094280001960AF102030EA93846FFF7F1FC08F18C
:109438000108002898D1237C5FFA88F6B342D8D86F
:1094480055E7E369002B3FF456AF4FF000084FF0A3
:109458000A0922E0012200210EA8D4F81CB008F065
:1094680069FA9DF838303BF836200BEBC60A43F012
:109478000A0309FB06568DF83830E0360AF1040372
:10948800009301960AF102030EA93846FFF7C0FCC3
:1094980008F1010800287FF467AF237E5FFA88F699
:1094A800B342D7D827E7A06A42460DF10F0100EB77
:1094B8008600FFF7A5FB00287FF456AF014614226B
:1094C80009A808F037FA42F60713ADF8243094F8E3
:1094D8002C308DF82A3005F5A6729DF80F30B5F8B6
:1094E8004401ADF82E3009A9ADF83230CDF83480FA
:1094F80000F098FA00287FF437AF013694F8263048
:109508009E42D0DB237A83B305F5A77304F14202A8
:1095180042F622213846FFF7CAFC00287FF424AF20
:10952800014620220EA808F005FA42F63223ADF8CB
:1095380038309DF84530288943F00E0301228DF814
:10954800453094F84530ADF83C208DF849308DF819
:10955800472094F846308DF84A3005F5AB720EA9CD
:1095680000F0BDF900287FF4FFAE637A002B5ED1CE
:10957800238E8DF824301B0A8DF8253094F832306C
:109588008DF82630202294F833308DF827300021CA
:109598000EA808F0CFF942F64A23ADF838309DF806
:1095A8004530288943F002038DF8453094F834306B
:1095B8008DF8493009AE4FF0041305F5B3720EA9C2
:1095C8000F93109600F08BF900287FF4CDAE01467A
:1095D8008DF8240020220EA894F83E7008F0AAF90D
:1095E80042F64C23ADF838309DF8453028898DF87F
:1095F8004A7043F004038DF8453005F5B7724FF013
:1096080001130EA9CDE90F3600F069F900287FF49F
:10961800ABAEE368C5F87C316369C5F88031E369AE
:10962800C5F88431A0E606460DF1140866E705F58D
:10963800AF7304F13F0242F633213846FFF737FC97
:10964800002895D090E60E208EE62DE9F04186B0F0
:109658000C4615461F46BDF830608046002850D09D
:10966800002B4ED0837C8B424DD94FF6FF739E4220
:109678004BD0ADF80220314601AAD0F8780100F0AD
:10968800DBF898BB019AD8F87C3113320192014675
:109698005FFA80FCA4452CD301B1019233F8343031
:1096A800AB422CD32A463946019808F01AF9002112
:1096B800102202A808F03EF90A2303FB048402A939
:1096C800A38AADF8083001238DF80A300023ADF8DD
:1096D8000C3030460DF10203CDE90437FFF78CFA60
:1096E80020B9049B1B88AB4218BF0C2006B0BDE80C
:1096F800F08133F8301001300A440121C8E70C200A
:10970800F4E70E20F2E70720F0E70820EEE7F0B5CF
:109718000C4687B016461D460746002836D0AAB321
:109728004FF6FF739D4233D0ADF8021001AA2946C7
:10973800D0F8780100F080F830BB0198082C00F1CF
:109748000200019003D82246314608F0CAF80021E9
:10975800102202A808F0EEF8B7F84E31ADF808303C
:1097680001238DF80A300023ADF80C3002A90DF161
:1097780002032846CDE90436FFF73EFA20B9049BD8
:109788001B88A34218BF0C2007B0F0BD0E20FBE7D2
:109798000820F9E72DE9F7430B9F0E4690469946B6
:1097A8000546002842D0002F40D090F878308B42F0
:1097B8003ED901AABDF82810D0F8780100F03CF88D
:1097C800044608BB019A95F812C013320192034669
:1097D8000146D8B284451BD801B101920022019BF1
:1097E800D5F880111046D5B2B54219D300B101930E
:1097F80031F8362008EB090393421BDC01994246F5
:109808004944384608F06DF8204603B0BDE8F083B7
:10981800D5F87C1131F8331001330A440121D8E717
:1098280031F83200013203440120DCE70E24EBE773
:109838000724E9E70924E7E770B5054616460AB99B
:109848000E2070BD002313600028F9D00368002B98
:10985800F6D0C38813F003040FD10846FFF764F865
:10986800C0B214280BD02B7983420AD9EB882A6816
:1098780000FB032030602046E3E70720E1E70520EE
:10988800DFE70420DDE7AADF7047ABDF704700237E
:1098980001380B70042806D8DFE800F00306080A30
:1098A8000C0011230B7070472123FBE73123F9E7E4
:1098B8001223F7E72223F5E7007800F0010070474C
:1098C8000B7803704B7843700220704738B5044614
:1098D80008460D4608F083F86560208038BDF0B56D
:1098E8008B7891B005460C46164603B9012303222E
:1098F8008DF80E3000212388ADF80C30684608F04A
:1099080019F86946607CFFF7C2FF0DF10101A07CE0
:10991800FFF7BDFF9DF80230E27B62F3C303227CB0
:1099280062F30413227B62F30003227D002A14BF32
:109938000222012262F3420300211C2209A88DF8A9
:10994800023007F0F7FF637B13F0300F15D002AF3A
:1099580003220021384607F0EDFF0DF10901E07CF4
:10996800FFF795FF11238DF808309DF80A300E9700
:10997800012262F342038DF80A30637B8DF82430AC
:109988001422A37B8DF82530002104A807F0D2FF0C
:1099980003AB0493A388ADF81C30A368CDF814D0AA
:1099A8001BB1E288ADF818200893A369002B2ED0CC
:1099B80001AF03220021384607F0BCFFA3691A88CB
:1099C800ADF82C205A88187BADF82E2039465A68F5
:1099D8000A920D97FFF75BFFA3690DF10501587B0C
:1099E800FFF755FFA2699DF80630917A61F3C3032A
:1099F800D17A61F30413117A927B002A61F3000390
:109A080014BF0222012262F342038DF80630E36993
:109A180003B10C93334604AA09A92846FFF733FF7C
:109A280011B0F0BD70B50C4688B005461646002149
:109A3800142203A807F07EFFA37803B901238DF849
:109A48000A3008AB228823F8182D01AA1146A079FC
:109A58000393FFF71CFF0DF10501E079FFF717FFEE
:109A68009DF80630E178049261F3C303217961F32C
:109A78000413617961F30003217A002914BF0221DC
:109A8800012161F342038DF806306389ADF8143083
:109A9800A389ADF81630E389ADF81830324623694A
:109AA800079303A92846FFF7F0FE08B070BD000031
:109AB800054A4FF0A043105CD3F8043523FA00F0B0
:109AC800C04300F001007047AE1D0300044B1A5C50
:109AD800012393404FF0A042C2F80C35704700BFF5
:109AE800AE1D0300044B1A5C012393404FF0A042C3
:109AF800C2F80835704700BFAE1D030008B5002046
:109B0800FFF7F0FF0120FFF7EDFF0220FFF7EAFF64
:109B18000320BDE80840FFF7E5BF08B50020FFF7C0
:109B2800D5FF0120FFF7D2FF0220FFF7CFFF032068
:109B3800BDE80840FFF7CABF074A4FF0A041105CD4
:109B4800D1F804350122824022EA03001340C1F80B
:109B58000805C1F80C357047AE1D03004FF0A0434F
:109B6800D3F810056FEA901000F00100704706382E
:109B780018BF4FF0FF30704706207047C20708B57E
:109B880001460CD54FF0A0430322C3F81C27C3F8A5
:109B98004427C3F84C27C3F85027FFF7AFFF8B07BC
:109BA80042BF4FF0A0430C22C3F8182708BD08B5E0
:109BB80001220221002000F04DFA08B1072810D137
:109BC80007220221012000F045FA08B1072808D130
:109BD80000210A22084600F03DFA10B1072808BF04
:109BE800002008BD0388102B10B502D0112B1ED001
:109BF80010BD1A4C2168B1B90122084600F02AFAB2
:109C080008B1072824D107220221012000F022FAF6
:109C180008B107281CD104220221002000F01AFAFA
:109C280008B1072814D1236801332360E0E70B4A01
:109C38001368013B1360002BDAD1FFF7B8FF002847
:109C4800D6D0074B1B68002BD2D0BDE81040184770
:109C5800034B1B68002BE6D09847E4E7102B002045
:109C68000C2B002008B5002000F00EFA08B10628D9
:109C780006D1012000F008FA10B1062808BF00201C
:109C880008BD00000D4B10B518600C4629B1012025
:109C980000F086F940B102232370094B1B6853B9C1
:109CA800BDE81040FFF783BF00F07AF908B10B2335
:109CB800F2E72070F1E7002010BD00BF0C2B002058
:109CC800102B00200220FFF737BF000008B5094B12
:109CD8001B7853B10020FFF705FF0120FFF702FFB3
:109CE8000320BDE80840FFF7FDBEBDE80840FFF7C8
:109CF80005BF00BF152B0020F8B57B4C237805461F
:109D08001BB100232370FFF7E1FF172D00F28880B5
:109D1800DFE805F00C17174354657680888D888D29
:109D2800959A9A9A9A9AC4C9D1D9E4E4FFF7CEFFD2
:109D38006E48FDF7F5FD6E4B002204461A7020466A
:109D4800F8BD0020FFF7B4FEF8B10020FFF7CAFE07
:109D5800022D0CBF4FF4E1614FF47A61644B1D7022
:109D68004FF400404FF4FA740025E0FB01454FF42E
:109D78007A7200232046294607F0B8FC00220146E3
:109D88005A48BDE8F840FDF787BDFFF79FFE022D52
:109D98000CBFC8214FF4C871E0E70020FFF788FE28
:109DA80040B10020FFF79EFE4FF44871504B03224C
:109DB8001A70D5E7FFF78AFEC821F7E70020FFF7FA
:109DC80077FE38B10020FFF78DFE4FF47A61484BDB
:109DD8000422EDE7FFF77AFE4FF4C871F7E7002099
:109DE800FFF766FE48B10020FFF77CFE404B0522D6
:109DF8001A7041F69A110022C2E7FFF767FEF5E7ED
:109E08000020FFF799FE3A4B06221A70002240F60E
:109E1800CD41B5E70020FFF759FE354B07221A70F0
:109E280000248CE701202070FFF786FEEEE7012072
:109E38002070FFF781FE00224FF48041A0E7FFF772
:109E48006CFE2B4B0C22EAE72A482B4EFDF768FDE7
:109E5800D5F1110504461CD0D8B9012D13D0C8235B
:109E68005D434FF400474FF4FA7000214FF47A72C3
:109E78000023C7FB050107F039FC224601461D48AF
:109E8800FDF70AFD04460220FFF720FE0123337088
:109E980055E70220FFF726FE0023F8E7FFF716FF35
:109EA800134B1222BBE7FFF711FF0020FFF70EFE4E
:109EB8000F4B1322B3E7FFF709FF0120FFF706FE58
:109EC8000B4B1422ABE7FFF701FF0020FFF7FEFD65
:109ED8000120FFF7FBFD064B1522A0E7FFF71DFE4B
:109EE800034B1D709CE700BF802B0020582B0020DF
:109EF800882B0020182B0020152B0020044B1B68F2
:109F0800DB0703D5034B1878FFF7F6BE704700BF91
:109F18007C2B0020882B00202DE9F04107460C46B9
:109F2800FFF725FE20B9012C04D01DD3022C25D023
:109F3800BDE8F081134D6A782C7842B1124E13486F
:109F480032464FF40041FDF7A7FC00B93770104BBB
:109F5800AA781A70002CEBD00E4B1B68002BE7D0A8
:109F68002046BDE8F04118470848FDF7D9FC054BE5
:109F78009C78074B1B78A342DAD1EBE7014B5C785E
:109F8800E8E700BF782B0020142B0020382B002096
:109F9800892B0020842B002002210078FFF7BCBF0A
:109FA80008B9FFF7DBBD002070470000044B1B68B1
:109FB80013F0010301D0FFF79FBE1846704700BF9A
:109FC8007C2B002038B5194B1860194B10F002048F
:109FD8000546196014D0174B17480E221A70012134
:109FE80040F26662FDF782F8044648B9FDF7D2F8F8
:109FF800044628B90146114A1148FDF73BFC0446BE
:10A00800EB0711D50120FFF7B9FD6CB921460D4AC0
:10A018000D48FDF72FFC044630B90C4A0C480121C5
:10A02800BDE83840FDF726BC204638BD7C2B002013
:10A03800842B0020782B0020B41D0300A19F020070
:10A04800C01D0300059F0200C41D0300CD9C020033
:10A05800BC1D030048B9012A02D1012907D00246D4
:10A06800012905D00AD3022905D0072070470E22FE
:10A07800044B1A707047034B5A707047014B9A7023
:10A08800704700BF782B002010B5044690B9FFF741
:10A0980073FD800000F1A040D0F8003723F440336E
:10A0A800C0F80037D0F8003743F44033C0F8003721
:10A0B800204610BD0624FBE770B5064E0546002471
:10A0C80056F824300BB1284698470134042CF7D1B0
:10A0D80070BD00BF982B0020033080B240F2FD33E2
:10A0E800984230B51FD8124B1A783AB91C895D8945
:10A0F8002C440444A4B2B4F5806F0AD31A7DA2B9E3
:10A108009A8BDC8B2244024492B2B2F5806F0CD257
:10A1180001220A801446142202FB04335A8910448F
:10A128005881002030BD0920FCE70720FAE700BF6E
:10A13800CC2B00200B4A0C4B5188142000FB01311A
:10A14800CB6833B90420496810700122074802F02F
:10A158007BBE05230649137002238B80012200234E
:10A168000968F3E7B02B0020CC2B00201822002030
:10A17800942C002007B5002305490093054A096877
:10A188000548082302F0CAFD03B05DF804FB00BFD0
:10A19800942C0020D41D03001822002007B50023AA
:10A1A800009301460823034A034802F0B7FD03B0B1
:10A1B8005DF804FBCC1D03001822002013B5002312
:10A1C8000C46009301460423074A084802F0A6FDFE
:10A1D80038B9074B142202FB04340123237402B05C
:10A1E80010BD0E20FBE700BFC81D03001822002089
:10A1F800CC2B002037B50A480A4B42689C8819685E
:10A2080053880325033305709BB2002000909B0000
:10A2180001EB8401044802F081FD03B030BD00BFAA
:10A22800B02B0020942C00201822002010B50146E5
:10A23800044801F0C0FD1C220446002107F07AFB07
:10A24800204610BD802C00204388033300EB830395
:10A25800994209D382884FF6FF739A4206D0008844
:10A26800B0FA80F04009704702207047012070471B
:10A278002DE9F8430223DFF860800B800D4617466E
:10A2880000F5805600F108044FF00109B4420FD2DE
:10A29800236801330CD031462046FFF7D5FF48B17B
:10A2A8000FB187F8009002280BD14FF480632B8000
:10A2B800BDE8F883A368D8F80020934201D9C8F80C
:10A2C80000302B886288033313442B806388033360
:10A2D80004EB8304DAE700BFC42B0020144A1423DC
:10A2E80003FB002070B50B6844680D4604F58056E2
:10A2F8009BB15C88033403EB8404B4420BD223681B
:10A30800013308D031462046FFF79EFF012809D0C7
:10A3180005D30228F1D1002003E00834EDE72C60D2
:10A32800012070BD6388033304EB8304E5E700BFB5
:10A33800CC2B0020436873B505460C466BB3254A01
:10A34800D1688B4229D31269934226D813F00302AD
:10A3580023D121490089098988421ED12868996832
:10A3680088421AD11D494868834203D900F58050B4
:10A3780083420ED38A6993420DD902F580529342E3
:10A3880009D2012323800020B0FA80F0400902B0EE
:10A3980070BD1346F6E70A20F6E7002323801E4621
:10A3A8002388012B01D90020F1E7019601A9208813
:10A3B800FFF794FF18B9238801332380F0E7019B46
:10A3C8002A6899689142F1D16B60034B1B892B81F4
:10A3D800DDE700BF18220020B02B0020CC2B002086
:10A3E8002DE9F8431C461E4B1B7806460F461546BA
:10A3F800002B30D0002A30D07CB3DFF86C804FF0CF
:10A408001409A388012B01D90A201AE009FB03F3D8
:10A4180018F80330BBB1A3880133A380F1E72368A0
:10A428001EB19988328891420DD11FB119883A8896
:10A43800914208D19A68C5E900230A4B1B892B81F0
:10A448000020BDE8F8832146A088FFF747FF0028D1
:10A45800E5D12060DFE70220F3E70520F1E700BF40
:10A46800A82B0020B02B0020CC2B002008B5074BD0
:10A47800191D5888FFF732FF18B1BDE80840FFF7EB
:10A48800B9BEBDE80840FFF755BE00BFB02B00209D
:10A498002DE9F04FA04FDFF8A49289B00646B846E0
:10A4A8003B6823B949469D4801F0BFFC3860D8F89D
:10A4B800005029784B1E052B00F21281DFE813F0BB
:10A4C800060076007600060106015D0126B1944B70
:10A4D80000225A60012424E02B79032B1DD8DFE8E1
:10A4E80003F01502424D8F490B78022B084631D0F4
:10A4F8000B7D022B4FF001032ED114225343C218B7
:10A508000020C8545068FFF749FE03E001232B716F
:10A51800FFF730FE002800F0D380814B00225A60FC
:10A528000E241422002103A807F004FA41F61D5353
:10A538009C4208BF0024D8F8003004941A78023AE4
:10A54800042A00F2D381DFE812F0B401C001E3016C
:10A55800EB01F2010023D0E7714A13700023536026
:10A5680041F61D54DDE770497048002302222B7123
:10A578008A800122096802F067FCCBE76A4C002652
:10A588002E712068674DFFF709FE694BD4F800C0AB
:10A598005A8814235343EA18EE5451682160A1885D
:10A5A800C2F804C011810222A280B3E7B5F814A052
:10A5B800AA7DDFF870B1AEB1022AEB8806D9142162
:10A5C80001FB0AB1DA1C088902440A81142202FB41
:10A5D8000ABAC3F57F43BAF80A20FD331344AAF830
:10A5E8000A3077E7142303FB0AB318895C6804EB85
:10A5F8008004062A05D8DFE802F0264C34421C58AD
:10A6080066000F24AA7DEB88022A06D9142101FBD3
:10A618000AB1DA1C088902440A81142202FB0ABA28
:10A62800C3F57F43BAF80A20FD331344AAF80A3069
:10A6380077E74048404900234360AB690360FFF770
:10A6480079FE00285AD00223AB7500230093042317
:10A65800EA182146354802F061FB002830D00E2464
:10A66800D0E72B69002B0CBF01230323AB75002314
:10A67800009305F10C02042304F10801EAE7012321
:10A68800AB750022EB8800929B002A6904F10C014B
:10A69800E0E7032914BF06230523AB7500230093C5
:10A6A800042305F10802E118D4E70623AB75224B11
:10A6B8001988204B5868FFF781FD04460028A1D16E
:10A6C80009B0BDE8F08F41F61D549BE7002E7FF4DA
:10A6D80001AF2B79012B33D004D3022B3FF440AFC9
:10A6E8000F241EE702232B710DF10A01EB68039377
:10A6F80003A8CDE90466FFF71DFE08B90A2410E790
:10A708000498BDF80A108388EB8003882B81FFF733
:10A7180055FD044627E000BFC82B0020802C0020F0
:10A72800A82B0020CC2B0020942C002018220020DD
:10A73800B02B00208C2B0020A02C0020C02B002048
:10A74800DFF808A203AA53463146A81DFFF748FEC2
:10A75800044660B9BAF804100498FFF72FFD0446C0
:10A768000A2C3FF4FDAE002C7FF4DBAEA8E70822EC
:10A778003146504607F0DEF8F2E7002E7FF4AAAE25
:10A788006D4B1A7BB2B11E731A78013A062AA7D804
:10A7980001A151F822F000BF47A802006DA80200ED
:10A7A8008BA8020091A80200E9A6020097A802005F
:10A7B800ADA802001A78072AE6D801A151F822F0BC
:10A7C800E9A7020091A7020091A702000FA80200C2
:10A7D80023A8020043A8020043A802000BA8020015
:10A7E8001A89564901321A8100225A801A730A7846
:10A7F800B2FA82F252099A720A7DB2FA82F25209C8
:10A80800DA72012207E04E4958688A884088033284
:10A8180002448A8002221A70B6E7484C5A8848498E
:10A82800142505FB02420868546850608888108126
:10A8380002228A800C600622EDE70722EBE79A7A6B
:10A8480032B9DA7A8AB900221A705A805A6087E6D1
:10A858003A4900229A72CA68002AF2D1097C002972
:10A86800EFD05A80FFF702FE53E70022DA72334A2C
:10A87800116A0029E7D192F82420002AE3D00122A6
:10A88800EFE7FFF7B7FC44E7FFF754FC41E7062280
:10A898001A702A4A5B88142101FB03235868FFF7C2
:10A8A8007DFC36E707221A7000225A60FFF762FC27
:10A8B8002FE701228DF80C201A89ADF818209A8804
:10A8C800DB68ADF81A20059310E002228DF80C2001
:10A8D8001A89ADF818209A88ADF81A20DA689B7D95
:10A8E80005929A1F534253418DF81C3003A8FFF775
:10A8F800E3FB002649461348C8F8006001F0C0FA97
:10A908000121114801F06FFB00287FF4C9ADD7E69B
:10A9180003228DF80C20DA88ADF818201A89CFE7C1
:10A928000422DB888DF80C20ADF81830DEE705230B
:10A938008DF80C30DAE700BFB02B0020CC2B0020BC
:10A94800942C0020802C0020902C0020A42C002087
:10A958004068FFF79DBD000008B50121044801F0DB
:10A968002CFB18B9BDE80840FFF792BD08BD00BF31
:10A97800902C00202DE9F3419846354B1B7806466C
:10A988000D46002B5BD000295BD009884FF6FF737A
:10A99800994258D06B88002B55D06B689B0754D1CF
:10A9A8004AB92F890DF102013846FFF795FB30B1FE
:10A9B80002B0BDE8F08113885788ADF8023001A8CD
:10A9C800FFF734FC044658B9BDF80230214A142177
:10A9D80001FB032358890338C01B58810820E7E787
:10A9E80000238375BDF8023083826B68036180F8A9
:10A9F80000800121184801F0EBFA2B882381B8F177
:10AA0800030F6B88A38004BF0423A3754FF00005D0
:10AA180008BF3368E06008BFA361E780658101A9CA
:10AA28000E4801F0F2F936B1E36833600C4B7560FB
:10AA38001B89B5723381FFF78FFF0020B8E702202A
:10AA4800B6E70520B4E70420B2E70320B0E700BF6B
:10AA5800A82B0020CC2B0020C42B0020802C002009
:10AA6800B02B002008B5084B1A68042A09D01968C9
:10AA7800064A42F821000121184601F0A9FA0020EF
:10AA880008BD0C20FCE700BF9C2C0020982B002060
:10AA98002DE9F04F89B01422002103A806F04AFFDF
:10AAA8007B4A137803F0FF01009190463BB103A85D
:10AAB800FFF702FB0026304609B0BDE8F08F101DF5
:10AAC80001F09CFA05460028F4D14FF010234FF00E
:10AAD80080525B6911695269DFF8DCA1581C08BF14
:10AAE80002FB01F3CAF810300022A3F5405369496C
:10AAF800CAF80C30504602F0DDF806460028DAD1D4
:10AB08001C238C226449654801F020F93746B34676
:10AB18004FF003093446CDF804A0019BD9680BEB2C
:10AB2800010002465BF80110002835D05C4B9942C1
:10AB380032D141685B4B994215D0013399422BD1F0
:10AB4800009BDFF86CA1002B59D100225649CAF8A6
:10AB58000000FFF78DFBBAF80420022A14BF082270
:10AB6800042217433AE051494FF0140C0CFB04FC43
:10AB780001EB0C024FF0000E01F80CE050600CF1F4
:10AB880010020CF1080C0A446144FFF771FB47F00E
:10AB980002070134A4B221E000F5805C116801319C
:10ABA80067D104329445F9D1414A116829B9022183
:10ABB80001231060918000930EE0142262433B4B06
:10ABC8004FF0020E991803F802E03A4A48605480A0
:10ABD8000134A1F808E0A4B247F001070BF5805B47
:10ABE800BBF5405F99D1B9F1010F88BF3D46EDB281
:10ABF800022D02D0062D12D0DDB90B265BE72B4BB8
:10AC08001422624399184FF0020C03F802C0013471
:10AC1800DAF800204A60A1F808C0A4B295E7012339
:10AC280088F8003003A80023C8F80430FFF744FA76
:10AC380041E702A8FFF7FAFAC8B10123013D037002
:10AC48000A2D09D8DFE805F00608060807080708EE
:10AC58000F110F000023037102A9104801F0D5F865
:10AC6800FFF77AFE27E70323F5E70223F3E7082631
:10AC780021E70E491422624301EB020C09F1FF3966
:10AC8800CCF8040003201FFA89F9885481E700BF33
:10AC9800A82B0020D4240300F42B0020802C0020B3
:10ACA800DEC0ADDEFE011EF1982C0020CC2B00206A
:10ACB800942C0020B02B00201822002073B50D46DC
:10ACC8000446C8B1C1B10DF10601FFF733FBA8B1C5
:10ACD8000B4BBDF806006668142202FB0030012108
:10ACE8000C3001F075F963682E600C336B6001233A
:10ACF800A372002002B070BD0520FBE70A20F9E727
:10AD0800CC2B002013B50446A8B10DF10601FFF7BE
:10AD180011FB90B10B4ABDF80630142101FB032347
:10AD2800DA6862B1A27A52B1DA680020013ADA60D0
:10AD3800A07202B010BD0520FBE70A20F9E7062043
:10AD4800F7E700BFCC2B002002230022FFF712BE3A
:10AD580018B103230022FFF70DBE0520704700003D
:10AD6800104B1B7813B50446ABB14FF6FF739842EE
:10AD780013D001A8FFF75AFA88B1052303700123FD
:10AD88000371C48001A9084801F03FF8FFF7E4FD0A
:10AD9800002002B010BD0220FBE70420F9E70820DC
:10ADA800F7E700BFA82B0020802C00200E4B1B7853
:10ADB80007B5A3B101A8FFF739FA90B106230370CC
:10ADC80001A90A4801F021F8094B1A780AB10122B1
:10ADD8001A73FFF7C1FD002003B05DF804FB0220E1
:10ADE800FAE70820F8E700BFA82B0020802C0020F5
:10ADF800B02B002007B5ADF8060002A820F8041D06
:10AE080001460DF10600FFF7EBFA03B05DF804FB0D
:10AE180013B502AC134624F8020D0A460020214659
:10AE2800FFF7DEFA02B010BD13B502AC134624F8E2
:10AE3800020D0A4620460021FFF7D2FA02B010BDE3
:10AE480020B119B103680B600020704705207047D6
:10AE5800A0DF704710B50446408800F02BFDA080A5
:10AE68002046BDE8104004F0B9BF30B587B00546AC
:10AE78000C4618220021684606F05CFD0723684648
:10AE88008DF80030ADF802500294FFF7E3FF07B0E9
:10AE980030BD000070B586B005461822002168460E
:10AEA80006F048FD4FF6FF739D42ADF8025029D0D9
:10AEB800284600F083FB0B2804462CD014D818B37E
:10AEC800204603F0DBF81B4E1B4B1C49F61AF6080C
:10AED800360402462B4646F0010002F0E3FB214609
:10AEE8002846FFF7C2FF05E0112805D043F2020308
:10AEF8009842E5D1002200E00122114B284619783A
:10AF0800FDF73EFD06B070BD0E238DF80030684693
:10AF1800FFF7A0FFEEE70F238DF800300548064B3A
:10AF28000849C01AC00800042A4640F0020002F08E
:10AF3800AFFBECE75C1B0300EC1A0300F71F0300F0
:10AF4800B12C0020771F0300FFF7A4BF024B034971
:10AF580018780022FDF732BDB32C00209DAF020007
:10AF680013B5042204460021684606F0E3FC42F6C5
:10AF7800A623ADF8003001238DF80230044B186881
:10AF8800019001AA69462046FFF762FF02B010BD92
:10AF9800DC1D03002DE9F0412D4D86B029780446CB
:10AFA800FDF7D6FCA8460746002849D1204600F000
:10AFB80069FB0828054632D016D808B306282ED0D3
:10AFC800284603F05BF8234E234B2449F61AF6086B
:10AFD80036040246234646F0010002F063FB294688
:10AFE8002046FFF742FF09E043F20203984205D0EA
:10AFF80043F20143984226D01128E1D1012214E0FE
:10B0080039461822684606F095FC102368468DF8E4
:10B018000030ADF802400127FFF71CFFEEE720469D
:10B0280000F048FC00F05AFB00220D4B204619782E
:10B03800FDF7A6FC3A4698F800102046FDF7A0FC5C
:10B0480006B0BDE8F0812046FFF724FFD6E700BF31
:10B05800B42C00205C1B0300EC1A030048200300FA
:10B06800B32C002013B5044600F024FC00236A46E4
:10B07800092104F021F8052805D1044B012219788B
:10B088002046FDF77DFC02B010BD00BFB02C0020AB
:10B0980008B5084B084918780022FDF78FFC0246CE
:10B0A80030B9064B06491878BDE80840FDF786BC5C
:10B0B80008BD00BFB22C0020CDB00200B02C00208B
:10B0C80069AF020070B5012186B006462A4800F033
:10B0D8003EFF0446BFF35F8F80BB304600F012FA94
:10B0E800112805462CD015D8E0B1284602F0C6FF35
:10B0F800224C234B2349E41AE4082404024633462D
:10B1080044F0010002F0CEFA29463046FFF7ADFEC2
:10B11800002405E0862815D043F202039842E4D1C2
:10B12800224601E001240246174B30461978FDF704
:10B1380027FC1CB9BFF35F8F0F4B1C6006B070BDB6
:10B148000122F1E721461822684606F0F3FB0623A0
:10B158008DF8003009480A4B0C49ADF80260C01A56
:10B16800C0080004324640F0020002F091FA684636
:10B17800FFF770FED4E700BFAC2C00205C1B030077
:10B18800EC1A03001D1E0300B22C0020E81D03006A
:10B1980038B503780446A3B94088FFF77BFE658875
:10B1A800284600F05DFA28B1064B01221978284696
:10B1B800FDF7E6FB6088FFF755FFBDE83840FFF76D
:10B1C80067BF38BDB32C00200378082B37B5044679
:10B1D80030D1427A72BB057A072D1BD0082D2DD0AD
:10B1E800012D27D16A462946808804F0E9F908BB71
:10B1F800019B1B78F3B1A08800F08AFB4FF6FF7320
:10B20800984217D0114B2A461978FDF7B9FBFFF77A
:10B218009DFE0FE0808800F07BFB4FF6FF7398429D
:10B22800044607D00A4B01221978FDF7A9FB2046EE
:10B23800FFF718FFFFF72CFF03B030BD054B196867
:10B248000129F7D1BFF35F8F1A60F3E7B32C002011
:10B25800B22C0020AC2C0020F8B5FDF76FFB194F7D
:10B26800194E3870FDF76AFB3070FDF767FB174D14
:10B27800174C2870FDF762FB2070FDF75FFB154B3C
:10B2880018703B78182B0AD03378182B07D02B78F6
:10B29800182B04D02378182B01D018280BD10E4B6B
:10B2A8000E480F49C01AC008000440F0010002F01F
:10B2B800EBF90320F8BD0B4B00201860BFF35F8F3C
:10B2C800F8E700BFB22C0020B12C0020B32C0020DE
:10B2D800B42C0020B02C0020EC1A03005C1B0300E7
:10B2E800081F0300AC2C002013B501230024ADF87F
:10B2F80000300923104AADF802408DF802300F4B98
:10B30800A14214BF19461146019100F0D3FA224612
:10B31800694603F03DFF60B102F0B0FE084A094BF0
:10B3280009499B1ADB081B04024643F0020002F09D
:10B33800AFF902B010BD00BFE01D0300E41D03001B
:10B34800EC1A03005C1B03008820030030B5038857
:10B358008588502B87B0044635D00BD8352B45D07F
:10B368003D4B3E4918780022FDF728FBFFF7EEFD1C
:10B3780007B030BD522B22D0542BF1D11822002116
:10B38800684606F0D7FA112328468DF80030ADF844
:10B39800025000F08FFAADF8040000F09FF9304B2E
:10B3A800284619780022FDF7EBFA2E4B2846002292
:10B3B8001978FDF7E5FA6846FFF74CFDD0E728460F
:10B3C800FFF768FDCCE7037B012BC9D1827A012AFC
:10B3D800C6D1018942F602139942C1D1224B2846AF
:10B3E8001978FDF7CDFAFFF753FEB9E71F4B002296
:10B3F80019782846FDF7C4FAE288B2F5857F0AD0A5
:10B408005AB11B481B4B1C49C01AC008000440F025
:10B41800020002F03DF900211AE06289012A09D0F0
:10B428001348144B1549C01AC008000440F0020024
:10B4380002F02EF9A289012A06D00D480D4B1049B9
:10B44800C01AC0080004E2E7A17B003118BF01213F
:10B458002846FFF749FF83E7B12C002051AF0200CF
:10B46800B42C0020B32C0020B22C0020B02C0020DB
:10B478005C1B0300EC1A03005A1E0300941E030011
:10B48800CE1E0300AFDF7047B1DF7047B2DF7047F1
:10B49800B3DF704773B50F4B0F4C93E803006D464D
:10B4A80085E8030000222946208803F071FE4FF644
:10B4B800FF762388B34201D0112801D102B070BDB4
:10B4C800184603F0CAFE00222946208003F060FED9
:10B4D800EFE700BFF8200300B62C0020044B1A88C1
:10B4E8004FF6FF739A4201D0FFF7D4BF704700BFF1
:10B4F800B62C0020024B4FF6FF721A8000207047CE
:10B50800B62C00202DE9F347804600F0D3F94FF61A
:10B51800FF739842074647D0254E264BDFF898A080
:10B52800F61AF608360446F0010601226B46082191
:10B53800384602F1010904F047F81FFA89F905466F
:10B5480068BB01990A46032342F8043B063140468A
:10B55800FFF79CFF044648B93A460821384604F0EC
:10B56800F9F80446204602B0BDE8F0870C2814D04C
:10B57800052800D12C460821384604F097F840B138
:10B5880002F07CFD3A4603465146304602F08AF8FE
:10B5980003244A46002DC9D1E4E70125EBE7072833
:10B5A80014BF04460C24DDE743F20204DAE700BFC7
:10B5B800641B0300EC1A0300802103002DE9F3410A
:10B5C800064600F077F94FF6FF73984222D100241F
:10B5D800032527464FF001082B46224639463046B8
:10B5E800FFF752FF04282BD0082830D00B2828D189
:10B5F80015F0020319D1E7B9FCB91648164B1749DB
:10B60800C01AC0080004324640F0010002F040F8B9
:10B618000B2019E06A46082103F0D2FF0028D6D192
:10B62800019B9F1D9C881D68D4E701254FF00008E9
:10B63800D2E703251C461F46F8E703253C46F5E7F5
:10B648001120B8F1000FE3D002B0BDE8F08100206E
:10B65800F7E700BF641B0300EC1A0300082103008E
:10B668001FB50DF10703039300F024F902AA012185
:10B6780003F0A6FF20B9039B187805B05DF804FB1A
:10B688000020FAE738B504461048FFF701FF70B903
:10B698000E4B43F203054FF6FF7219882046FFF759
:10B6A800F1FEA84211D11A8801321A80F3E702F09C
:10B6B800E5FC074A074B08499B1ADB081B040246AE
:10B6C80043F0010001F0E4FF032038BDB82C00204E
:10B6D800EC1A0300641B0300FF21030013B5074A9B
:10B6E800044692E803006B4683E8030000221946EB
:10B6F800204603F04DFD02B010BD00BF002103003D
:10B708006EDF70476FDF704746DF70472DE9F04FF7
:10B7180099B01E46502383468846DDE92257ADF886
:10B7280006301446EAB1F6B1002333604FF0010940
:10B73800DDB1E7B100233B604FF0010A0822002188
:10B748000DEB020006F0F6F8C8EBC80804AB03934B
:10B75800ABF1020BA04444450BD1002019B0BDE861
:10B76800F08F9146E4E7B146E2E7AA46E6E7BA4633
:10B77800E4E75022002104A806F0DCF80DF10603E6
:10B7880002AA07213BF8020F03F096FC20F0020002
:10B798000528E3D09DF82130032B1AD8B9F1000F02
:10B7A80008D007220DF12101204606F09AF83368E7
:10B7B80001333360BAF1000F08D010220DF11101E6
:10B7C800284606F08EF83B6801333B601035073495
:10B7D800C1E743F20220C1E7421E00F10F0312F84D
:10B7E800010F10B99A42FAD170470120704708B585
:10B7F80070B171B103780A78534013F0FE0F08D185
:10B8080006220131013006F036F8B0FA80F040091E
:10B8180008BD0020FCE72DE9F04700F101084F1CA6
:10B8280006460D4600F1110901F1110A10223946A8
:10B83800404606F020F80446E0B94046FFF7CCFF42
:10B8480018B13846FFF7C8FF044651464846FFF787
:10B85800CEFF737C03F0FC03042B04D06B7C03F055
:10B86800FC03042B02D1201C18BF012000F00100AA
:10B87800BDE8F0870024E8E730B585B004460D46FA
:10B8880003F050FC02AA0DF10601072003F052FC58
:10B8980010B94FF6FF700BE0BDF80630AB42F1D09F
:10B8A80003992046FFF7B7FF0028EBD0BDF8060044
:10B8B80005B030BD132810B5044602D94FF6FF7005
:10B8C80010BDFCF7E1FF0028F8D00A206043014BC7
:10B8D800185AF5E7BA2C0020132838B504460D4647
:10B8E80002D943F2020038BDFCF7CEFF0028F8D099
:10B8F80006480A2303FB040050F8023F2B608388A4
:10B90800AB808379AB710020EDE700BFBA2C002033
:10B918004FF6FF7398422DE9F04106460CD00C4FC4
:10B9280000244FF00A0808FB04F3A5B2DB5BB3421E
:10B9380005D00134142CF6D14FF6FF7504E02846E3
:10B94800FCF7A2FF0028F4D02846BDE8F08100BF2C
:10B95800BA2C0020038843B9821C00F10A0312F8AC
:10B96800010B10B99A42FAD170470120704710B5FF
:10B978000446FFF7EFFF58B122880B889A4208D196
:10B9880008220231A01C05F076FFB0FA80F04009C9
:10B9980010BD0020FCE71FB5044603F0C3FB02AA54
:10B9A8000DF10601072003F0C5FB10B94FF6FF7033
:10B9B80007E0039920464631FFF7D9FF18B1BDF8D3
:10B9C800060004B010BD039920462A31FFF7CFFFC7
:10B9D8000028E4D0F3E7000013289FBF0A23584348
:10B9E800014B1952704700BFBA2C002038B50546E4
:10B9F800FFF78EFF0446284603F062FE38B9132C81
:10BA080005D80A236343024A4FF6FF71D15238BD65
:10BA1800BA2C00202DE9F0478846CEB0054600B183
:10BA280031B9002211461046FFF76CFE064642E087
:10BA38000DF1800950230DF1300AB8220021484643
:10BA4800ADF80630CDF80CA005F074FF0DF19703A2
:10BA580005930DF1AE0306930DF1C503079337ABBC
:10BA680008930DF1F30309930DF585730A930DF20D
:10BA78002113CDF810900B9300272C46502200215B
:10BA8800504605F057FF0DF1060302AA072120884A
:10BA980003F012FB20F00206052E05F102050ED177
:10BAA8001748184B22881849C01AC008000440F0EB
:10BAB800020001F0EDFD30464EB0BDE8F0879AF87F
:10BAC8001130032B0DD90F4B0D4822880F49C01A8E
